{
  "_format": "hh-sol-artifact-1",
  "contractName": "mapNFT",
  "sourceName": "contracts/mapNFT.sol",
  "abi": [
    {
      "inputs": [],
      "stateMutability": "nonpayable",
      "type": "constructor"
    },
    {
      "anonymous": false,
      "inputs": [
        {
          "indexed": true,
          "internalType": "address",
          "name": "owner",
          "type": "address"
        },
        {
          "indexed": true,
          "internalType": "address",
          "name": "approved",
          "type": "address"
        },
        {
          "indexed": true,
          "internalType": "uint256",
          "name": "tokenId",
          "type": "uint256"
        }
      ],
      "name": "Approval",
      "type": "event"
    },
    {
      "anonymous": false,
      "inputs": [
        {
          "indexed": true,
          "internalType": "address",
          "name": "owner",
          "type": "address"
        },
        {
          "indexed": true,
          "internalType": "address",
          "name": "operator",
          "type": "address"
        },
        {
          "indexed": false,
          "internalType": "bool",
          "name": "approved",
          "type": "bool"
        }
      ],
      "name": "ApprovalForAll",
      "type": "event"
    },
    {
      "anonymous": false,
      "inputs": [
        {
          "indexed": true,
          "internalType": "address",
          "name": "previousOwner",
          "type": "address"
        },
        {
          "indexed": true,
          "internalType": "address",
          "name": "newOwner",
          "type": "address"
        }
      ],
      "name": "OwnershipTransferred",
      "type": "event"
    },
    {
      "anonymous": false,
      "inputs": [
        {
          "indexed": true,
          "internalType": "address",
          "name": "from",
          "type": "address"
        },
        {
          "indexed": true,
          "internalType": "address",
          "name": "to",
          "type": "address"
        },
        {
          "indexed": true,
          "internalType": "uint256",
          "name": "tokenId",
          "type": "uint256"
        }
      ],
      "name": "Transfer",
      "type": "event"
    },
    {
      "anonymous": false,
      "inputs": [
        {
          "indexed": false,
          "internalType": "address",
          "name": "sender",
          "type": "address"
        },
        {
          "indexed": false,
          "internalType": "uint256",
          "name": "tokenId",
          "type": "uint256"
        }
      ],
      "name": "newNftMinted",
      "type": "event"
    },
    {
      "inputs": [
        {
          "internalType": "address",
          "name": "to",
          "type": "address"
        },
        {
          "internalType": "uint256",
          "name": "tokenId",
          "type": "uint256"
        }
      ],
      "name": "approve",
      "outputs": [],
      "stateMutability": "nonpayable",
      "type": "function"
    },
    {
      "inputs": [
        {
          "internalType": "address",
          "name": "owner",
          "type": "address"
        }
      ],
      "name": "balanceOf",
      "outputs": [
        {
          "internalType": "uint256",
          "name": "",
          "type": "uint256"
        }
      ],
      "stateMutability": "view",
      "type": "function"
    },
    {
      "inputs": [
        {
          "internalType": "uint256",
          "name": "tokenId",
          "type": "uint256"
        }
      ],
      "name": "getApproved",
      "outputs": [
        {
          "internalType": "address",
          "name": "",
          "type": "address"
        }
      ],
      "stateMutability": "view",
      "type": "function"
    },
    {
      "inputs": [],
      "name": "getUserNFT",
      "outputs": [
        {
          "internalType": "uint256",
          "name": "",
          "type": "uint256"
        }
      ],
      "stateMutability": "view",
      "type": "function"
    },
    {
      "inputs": [
        {
          "internalType": "address",
          "name": "owner",
          "type": "address"
        },
        {
          "internalType": "address",
          "name": "operator",
          "type": "address"
        }
      ],
      "name": "isApprovedForAll",
      "outputs": [
        {
          "internalType": "bool",
          "name": "",
          "type": "bool"
        }
      ],
      "stateMutability": "view",
      "type": "function"
    },
    {
      "inputs": [
        {
          "components": [
            {
              "internalType": "uint256",
              "name": "long",
              "type": "uint256"
            },
            {
              "internalType": "uint256",
              "name": "lat",
              "type": "uint256"
            },
            {
              "internalType": "uint8",
              "name": "isWest",
              "type": "uint8"
            },
            {
              "internalType": "uint8",
              "name": "isSouth",
              "type": "uint8"
            }
          ],
          "internalType": "struct mapNFT.Coordinate",
          "name": "a",
          "type": "tuple"
        },
        {
          "components": [
            {
              "internalType": "uint256",
              "name": "long",
              "type": "uint256"
            },
            {
              "internalType": "uint256",
              "name": "lat",
              "type": "uint256"
            },
            {
              "internalType": "uint8",
              "name": "isWest",
              "type": "uint8"
            },
            {
              "internalType": "uint8",
              "name": "isSouth",
              "type": "uint8"
            }
          ],
          "internalType": "struct mapNFT.Coordinate",
          "name": "b",
          "type": "tuple"
        },
        {
          "components": [
            {
              "internalType": "uint256",
              "name": "long",
              "type": "uint256"
            },
            {
              "internalType": "uint256",
              "name": "lat",
              "type": "uint256"
            },
            {
              "internalType": "uint8",
              "name": "isWest",
              "type": "uint8"
            },
            {
              "internalType": "uint8",
              "name": "isSouth",
              "type": "uint8"
            }
          ],
          "internalType": "struct mapNFT.Coordinate",
          "name": "c",
          "type": "tuple"
        },
        {
          "components": [
            {
              "internalType": "uint256",
              "name": "long",
              "type": "uint256"
            },
            {
              "internalType": "uint256",
              "name": "lat",
              "type": "uint256"
            },
            {
              "internalType": "uint8",
              "name": "isWest",
              "type": "uint8"
            },
            {
              "internalType": "uint8",
              "name": "isSouth",
              "type": "uint8"
            }
          ],
          "internalType": "struct mapNFT.Coordinate",
          "name": "d",
          "type": "tuple"
        },
        {
          "internalType": "string",
          "name": "color",
          "type": "string"
        }
      ],
      "name": "mintNFT",
      "outputs": [],
      "stateMutability": "nonpayable",
      "type": "function"
    },
    {
      "inputs": [],
      "name": "name",
      "outputs": [
        {
          "internalType": "string",
          "name": "",
          "type": "string"
        }
      ],
      "stateMutability": "view",
      "type": "function"
    },
    {
      "inputs": [
        {
          "internalType": "address",
          "name": "",
          "type": "address"
        }
      ],
      "name": "nftHolders",
      "outputs": [
        {
          "internalType": "uint256",
          "name": "",
          "type": "uint256"
        }
      ],
      "stateMutability": "view",
      "type": "function"
    },
    {
      "inputs": [
        {
          "internalType": "uint256",
          "name": "",
          "type": "uint256"
        }
      ],
      "name": "nftPolygon",
      "outputs": [
        {
          "components": [
            {
              "internalType": "uint256",
              "name": "long",
              "type": "uint256"
            },
            {
              "internalType": "uint256",
              "name": "lat",
              "type": "uint256"
            },
            {
              "internalType": "uint8",
              "name": "isWest",
              "type": "uint8"
            },
            {
              "internalType": "uint8",
              "name": "isSouth",
              "type": "uint8"
            }
          ],
          "internalType": "struct mapNFT.Coordinate",
          "name": "a",
          "type": "tuple"
        },
        {
          "components": [
            {
              "internalType": "uint256",
              "name": "long",
              "type": "uint256"
            },
            {
              "internalType": "uint256",
              "name": "lat",
              "type": "uint256"
            },
            {
              "internalType": "uint8",
              "name": "isWest",
              "type": "uint8"
            },
            {
              "internalType": "uint8",
              "name": "isSouth",
              "type": "uint8"
            }
          ],
          "internalType": "struct mapNFT.Coordinate",
          "name": "b",
          "type": "tuple"
        },
        {
          "components": [
            {
              "internalType": "uint256",
              "name": "long",
              "type": "uint256"
            },
            {
              "internalType": "uint256",
              "name": "lat",
              "type": "uint256"
            },
            {
              "internalType": "uint8",
              "name": "isWest",
              "type": "uint8"
            },
            {
              "internalType": "uint8",
              "name": "isSouth",
              "type": "uint8"
            }
          ],
          "internalType": "struct mapNFT.Coordinate",
          "name": "c",
          "type": "tuple"
        },
        {
          "components": [
            {
              "internalType": "uint256",
              "name": "long",
              "type": "uint256"
            },
            {
              "internalType": "uint256",
              "name": "lat",
              "type": "uint256"
            },
            {
              "internalType": "uint8",
              "name": "isWest",
              "type": "uint8"
            },
            {
              "internalType": "uint8",
              "name": "isSouth",
              "type": "uint8"
            }
          ],
          "internalType": "struct mapNFT.Coordinate",
          "name": "d",
          "type": "tuple"
        },
        {
          "internalType": "string",
          "name": "color",
          "type": "string"
        }
      ],
      "stateMutability": "view",
      "type": "function"
    },
    {
      "inputs": [],
      "name": "owner",
      "outputs": [
        {
          "internalType": "address",
          "name": "",
          "type": "address"
        }
      ],
      "stateMutability": "view",
      "type": "function"
    },
    {
      "inputs": [
        {
          "internalType": "uint256",
          "name": "tokenId",
          "type": "uint256"
        }
      ],
      "name": "ownerOf",
      "outputs": [
        {
          "internalType": "address",
          "name": "",
          "type": "address"
        }
      ],
      "stateMutability": "view",
      "type": "function"
    },
    {
      "inputs": [],
      "name": "renounceOwnership",
      "outputs": [],
      "stateMutability": "nonpayable",
      "type": "function"
    },
    {
      "inputs": [
        {
          "internalType": "address",
          "name": "from",
          "type": "address"
        },
        {
          "internalType": "address",
          "name": "to",
          "type": "address"
        },
        {
          "internalType": "uint256",
          "name": "tokenId",
          "type": "uint256"
        }
      ],
      "name": "safeTransferFrom",
      "outputs": [],
      "stateMutability": "nonpayable",
      "type": "function"
    },
    {
      "inputs": [
        {
          "internalType": "address",
          "name": "from",
          "type": "address"
        },
        {
          "internalType": "address",
          "name": "to",
          "type": "address"
        },
        {
          "internalType": "uint256",
          "name": "tokenId",
          "type": "uint256"
        },
        {
          "internalType": "bytes",
          "name": "_data",
          "type": "bytes"
        }
      ],
      "name": "safeTransferFrom",
      "outputs": [],
      "stateMutability": "nonpayable",
      "type": "function"
    },
    {
      "inputs": [
        {
          "internalType": "address",
          "name": "operator",
          "type": "address"
        },
        {
          "internalType": "bool",
          "name": "approved",
          "type": "bool"
        }
      ],
      "name": "setApprovalForAll",
      "outputs": [],
      "stateMutability": "nonpayable",
      "type": "function"
    },
    {
      "inputs": [
        {
          "internalType": "bytes4",
          "name": "interfaceId",
          "type": "bytes4"
        }
      ],
      "name": "supportsInterface",
      "outputs": [
        {
          "internalType": "bool",
          "name": "",
          "type": "bool"
        }
      ],
      "stateMutability": "view",
      "type": "function"
    },
    {
      "inputs": [],
      "name": "symbol",
      "outputs": [
        {
          "internalType": "string",
          "name": "",
          "type": "string"
        }
      ],
      "stateMutability": "view",
      "type": "function"
    },
    {
      "inputs": [
        {
          "internalType": "uint256",
          "name": "index",
          "type": "uint256"
        }
      ],
      "name": "tokenByIndex",
      "outputs": [
        {
          "internalType": "uint256",
          "name": "",
          "type": "uint256"
        }
      ],
      "stateMutability": "view",
      "type": "function"
    },
    {
      "inputs": [
        {
          "internalType": "address",
          "name": "owner",
          "type": "address"
        },
        {
          "internalType": "uint256",
          "name": "index",
          "type": "uint256"
        }
      ],
      "name": "tokenOfOwnerByIndex",
      "outputs": [
        {
          "internalType": "uint256",
          "name": "",
          "type": "uint256"
        }
      ],
      "stateMutability": "view",
      "type": "function"
    },
    {
      "inputs": [
        {
          "internalType": "uint256",
          "name": "_tokenId",
          "type": "uint256"
        }
      ],
      "name": "tokenURI",
      "outputs": [
        {
          "internalType": "string",
          "name": "",
          "type": "string"
        }
      ],
      "stateMutability": "view",
      "type": "function"
    },
    {
      "inputs": [],
      "name": "totalSupply",
      "outputs": [
        {
          "internalType": "uint256",
          "name": "",
          "type": "uint256"
        }
      ],
      "stateMutability": "view",
      "type": "function"
    },
    {
      "inputs": [
        {
          "internalType": "address",
          "name": "from",
          "type": "address"
        },
        {
          "internalType": "address",
          "name": "to",
          "type": "address"
        },
        {
          "internalType": "uint256",
          "name": "tokenId",
          "type": "uint256"
        }
      ],
      "name": "transferFrom",
      "outputs": [],
      "stateMutability": "nonpayable",
      "type": "function"
    },
    {
      "inputs": [
        {
          "internalType": "address",
          "name": "newOwner",
          "type": "address"
        }
      ],
      "name": "transferOwnership",
      "outputs": [],
      "stateMutability": "nonpayable",
      "type": "function"
    }
  ],
  "bytecode": "0x60806040523480156200001157600080fd5b506040518060400160405280600681526020017f6d61704e465400000000000000000000000000000000000000000000000000008152506040518060400160405280600381526020017f4d41500000000000000000000000000000000000000000000000000000000000815250816000908051906020019062000096929190620002ea565b508060019080519060200190620000af929190620002ea565b505050620000d2620000c66200013a60201b60201c565b6200014260201b60201c565b6200011d6040518060400160405280601981526020017f4d6170204e465420636f6e7472616374206372656174656421000000000000008152506200020860201b620017ca1760201c565b62000134600b620002ab60201b620018631760201c565b620004c6565b600033905090565b6000600a60009054906101000a900473ffffffffffffffffffffffffffffffffffffffff16905081600a60006101000a81548173ffffffffffffffffffffffffffffffffffffffff021916908373ffffffffffffffffffffffffffffffffffffffff1602179055508173ffffffffffffffffffffffffffffffffffffffff168173ffffffffffffffffffffffffffffffffffffffff167f8be0079c531659141344cd1fd0a4f28419497f9722a3daafe3b4186f6b6457e060405160405180910390a35050565b620002a8816040516024016200021f91906200043e565b6040516020818303038152906040527f41304fac000000000000000000000000000000000000000000000000000000007bffffffffffffffffffffffffffffffffffffffffffffffffffffffff19166020820180517bffffffffffffffffffffffffffffffffffffffffffffffffffffffff8381831617835250505050620002c160201b60201c565b50565b6001816000016000828254019250508190555050565b60008151905060006a636f6e736f6c652e6c6f679050602083016000808483855afa5050505050565b828054620002f89062000491565b90600052602060002090601f0160209004810192826200031c576000855562000368565b82601f106200033757805160ff191683800117855562000368565b8280016001018555821562000368579182015b82811115620003675782518255916020019190600101906200034a565b5b5090506200037791906200037b565b5090565b5b80821115620003965760008160009055506001016200037c565b5090565b600081519050919050565b600082825260208201905092915050565b60005b83811015620003d6578082015181840152602081019050620003b9565b83811115620003e6576000848401525b50505050565b6000601f19601f8301169050919050565b60006200040a826200039a565b620004168185620003a5565b935062000428818560208601620003b6565b6200043381620003ec565b840191505092915050565b600060208201905081810360008301526200045a8184620003fd565b905092915050565b7f4e487b7100000000000000000000000000000000000000000000000000000000600052602260045260246000fd5b60006002820490506001821680620004aa57607f821691505b602082108103620004c057620004bf62000462565b5b50919050565b614c3f80620004d66000396000f3fe608060405234801561001057600080fd5b506004361061014d5760003560e01c806370a08231116100c3578063a22cb4651161007c578063a22cb465146103b2578063b88d4fde146103ce578063c87b56dd146103ea578063d06a0e911461041a578063e985e9c51461044e578063f2fde38b1461047e5761014d565b806370a08231146102f0578063715018a6146103205780637df124a11461032a5780638c446fb71461035a5780638da5cb5b1461037657806395d89b41146103945761014d565b806323b872dd1161011557806323b872dd1461020a5780632f745c591461022657806334238d931461025657806342842e0e146102745780634f6ccce7146102905780636352211e146102c05761014d565b806301ffc9a71461015257806306fdde0314610182578063081812fc146101a0578063095ea7b3146101d057806318160ddd146101ec575b600080fd5b61016c60048036038101906101679190612dbe565b61049a565b6040516101799190612e06565b60405180910390f35b61018a610514565b6040516101979190612eba565b60405180910390f35b6101ba60048036038101906101b59190612f12565b6105a6565b6040516101c79190612f80565b60405180910390f35b6101ea60048036038101906101e59190612fc7565b61062b565b005b6101f4610742565b6040516102019190613016565b60405180910390f35b610224600480360381019061021f9190613031565b61074f565b005b610240600480360381019061023b9190612fc7565b6107af565b60405161024d9190613016565b60405180910390f35b61025e610854565b60405161026b9190613016565b60405180910390f35b61028e60048036038101906102899190613031565b6108a0565b005b6102aa60048036038101906102a59190612f12565b6108c0565b6040516102b79190613016565b60405180910390f35b6102da60048036038101906102d59190612f12565b610931565b6040516102e79190612f80565b60405180910390f35b61030a60048036038101906103059190613084565b6109e2565b6040516103179190613016565b60405180910390f35b610328610a99565b005b610344600480360381019061033f9190613084565b610b21565b6040516103519190613016565b60405180910390f35b610374600480360381019061036f919061320a565b610b39565b005b61037e610e6c565b60405161038b9190612f80565b60405180910390f35b61039c610e96565b6040516103a99190612eba565b60405180910390f35b6103cc60048036038101906103c791906132d1565b610f28565b005b6103e860048036038101906103e391906133b2565b610f3e565b005b61040460048036038101906103ff9190612f12565b610fa0565b6040516104119190612eba565b60405180910390f35b610434600480360381019061042f9190612f12565b611421565b6040516104459594939291906134b5565b60405180910390f35b61046860048036038101906104639190613513565b61163f565b6040516104759190612e06565b60405180910390f35b61049860048036038101906104939190613084565b6116d3565b005b60007f780e9d63000000000000000000000000000000000000000000000000000000007bffffffffffffffffffffffffffffffffffffffffffffffffffffffff1916827bffffffffffffffffffffffffffffffffffffffffffffffffffffffff1916148061050d575061050c82611879565b5b9050919050565b60606000805461052390613582565b80601f016020809104026020016040519081016040528092919081815260200182805461054f90613582565b801561059c5780601f106105715761010080835404028352916020019161059c565b820191906000526020600020905b81548152906001019060200180831161057f57829003601f168201915b5050505050905090565b60006105b18261195b565b6105f0576040517f08c379a00000000000000000000000000000000000000000000000000000000081526004016105e790613625565b60405180910390fd5b6004600083815260200190815260200160002060009054906101000a900473ffffffffffffffffffffffffffffffffffffffff169050919050565b600061063682610931565b90508073ffffffffffffffffffffffffffffffffffffffff168373ffffffffffffffffffffffffffffffffffffffff16036106a6576040517f08c379a000000000000000000000000000000000000000000000000000000000815260040161069d906136b7565b60405180910390fd5b8073ffffffffffffffffffffffffffffffffffffffff166106c56119c7565b73ffffffffffffffffffffffffffffffffffffffff1614806106f457506106f3816106ee6119c7565b61163f565b5b610733576040517f08c379a000000000000000000000000000000000000000000000000000000000815260040161072a90613749565b60405180910390fd5b61073d83836119cf565b505050565b6000600880549050905090565b61076061075a6119c7565b82611a88565b61079f576040517f08c379a0000000000000000000000000000000000000000000000000000000008152600401610796906137db565b60405180910390fd5b6107aa838383611b66565b505050565b60006107ba836109e2565b82106107fb576040517f08c379a00000000000000000000000000000000000000000000000000000000081526004016107f29061386d565b60405180910390fd5b600660008473ffffffffffffffffffffffffffffffffffffffff1673ffffffffffffffffffffffffffffffffffffffff168152602001908152602001600020600083815260200190815260200160002054905092915050565b600080600d60003373ffffffffffffffffffffffffffffffffffffffff1673ffffffffffffffffffffffffffffffffffffffff1681526020019081526020016000205490508091505090565b6108bb83838360405180602001604052806000815250610f3e565b505050565b60006108ca610742565b821061090b576040517f08c379a0000000000000000000000000000000000000000000000000000000008152600401610902906138ff565b60405180910390fd5b6008828154811061091f5761091e61391f565b5b90600052602060002001549050919050565b6000806002600084815260200190815260200160002060009054906101000a900473ffffffffffffffffffffffffffffffffffffffff169050600073ffffffffffffffffffffffffffffffffffffffff168173ffffffffffffffffffffffffffffffffffffffff16036109d9576040517f08c379a00000000000000000000000000000000000000000000000000000000081526004016109d0906139c0565b60405180910390fd5b80915050919050565b60008073ffffffffffffffffffffffffffffffffffffffff168273ffffffffffffffffffffffffffffffffffffffff1603610a52576040517f08c379a0000000000000000000000000000000000000000000000000000000008152600401610a4990613a52565b60405180910390fd5b600360008373ffffffffffffffffffffffffffffffffffffffff1673ffffffffffffffffffffffffffffffffffffffff168152602001908152602001600020549050919050565b610aa16119c7565b73ffffffffffffffffffffffffffffffffffffffff16610abf610e6c565b73ffffffffffffffffffffffffffffffffffffffff1614610b15576040517f08c379a0000000000000000000000000000000000000000000000000000000008152600401610b0c90613abe565b60405180910390fd5b610b1f6000611dcc565b565b600d6020528060005260406000206000915090505481565b6000610b45600b611e92565b90506001610b52336109e2565b10610b92576040517f08c379a0000000000000000000000000000000000000000000000000000000008152600401610b8990613b2a565b60405180910390fd5b610b9c3382611ea0565b6040518060a0016040528087803603810190610bb89190613bf3565b815260200186803603810190610bce9190613bf3565b815260200185803603810190610be49190613bf3565b815260200184803603810190610bfa9190613bf3565b815260200183815250600c6000838152602001908152602001600020600082015181600001600082015181600001556020820151816001015560408201518160020160006101000a81548160ff021916908360ff16021790555060608201518160020160016101000a81548160ff021916908360ff1602179055505050602082015181600301600082015181600001556020820151816001015560408201518160020160006101000a81548160ff021916908360ff16021790555060608201518160020160016101000a81548160ff021916908360ff1602179055505050604082015181600601600082015181600001556020820151816001015560408201518160020160006101000a81548160ff021916908360ff16021790555060608201518160020160016101000a81548160ff021916908360ff1602179055505050606082015181600901600082015181600001556020820151816001015560408201518160020160006101000a81548160ff021916908360ff16021790555060608201518160020160016101000a81548160ff021916908360ff1602179055505050608082015181600c019080519060200190610db6929190612caf565b50905050610ddd6040518060600160405280602a8152602001614ba0602a91393383611ebe565b80600d60003373ffffffffffffffffffffffffffffffffffffffff1673ffffffffffffffffffffffffffffffffffffffff16815260200190815260200160002081905550610e2b600b611863565b7f235834212a6b87f1642d2129e022f30aee6f09dd44f80bca0f551dc93b281ac43382604051610e5c929190613c20565b60405180910390a1505050505050565b6000600a60009054906101000a900473ffffffffffffffffffffffffffffffffffffffff16905090565b606060018054610ea590613582565b80601f0160208091040260200160405190810160405280929190818152602001828054610ed190613582565b8015610f1e5780601f10610ef357610100808354040283529160200191610f1e565b820191906000526020600020905b815481529060010190602001808311610f0157829003601f168201915b5050505050905090565b610f3a610f336119c7565b8383611f5d565b5050565b610f4f610f496119c7565b83611a88565b610f8e576040517f08c379a0000000000000000000000000000000000000000000000000000000008152600401610f85906137db565b60405180910390fd5b610f9a848484846120c9565b50505050565b60606000600c60008481526020019081526020016000206040518060a00160405290816000820160405180608001604052908160008201548152602001600182015481526020016002820160009054906101000a900460ff1660ff1660ff1681526020016002820160019054906101000a900460ff1660ff1660ff168152505081526020016003820160405180608001604052908160008201548152602001600182015481526020016002820160009054906101000a900460ff1660ff1660ff1681526020016002820160019054906101000a900460ff1660ff1660ff168152505081526020016006820160405180608001604052908160008201548152602001600182015481526020016002820160009054906101000a900460ff1660ff1660ff1681526020016002820160019054906101000a900460ff1660ff1660ff168152505081526020016009820160405180608001604052908160008201548152602001600182015481526020016002820160009054906101000a900460ff1660ff1660ff1681526020016002820160019054906101000a900460ff1660ff1660ff16815250508152602001600c8201805461115a90613582565b80601f016020809104026020016040519081016040528092919081815260200182805461118690613582565b80156111d35780601f106111a8576101008083540402835291602001916111d3565b820191906000526020600020905b8154815290600101906020018083116111b657829003601f168201915b505050505081525050905060006111f1826000015160000151612125565b611202836000015160200151612125565b611213846020015160000151612125565b611224856020015160200151612125565b611235866040015160000151612125565b611246876040015160200151612125565b611257886060015160000151612125565b611268896060015160200151612125565b6112798a6000015160000151612125565b61128a8b6000015160200151612125565b6040516020016112a39a99989796959493929190613ddb565b604051602081830303815290604052905060006112ca83600001516040015160ff16612125565b6112de84602001516040015160ff16612125565b6112f285604001516040015160ff16612125565b61130686606001516040015160ff16612125565b61131a87600001516040015160ff16612125565b61132e88600001516060015160ff16612125565b61134289602001516060015160ff16612125565b6113568a604001516060015160ff16612125565b61136a8b606001516060015160ff16612125565b61137e8c600001516060015160ff16612125565b6040516020016113979a99989796959493929190614010565b604051602081830303815290604052905060006113ee6113b687612125565b6113bf88612125565b866080015186866040516020016113da959493929190614355565b604051602081830303815290604052612285565b9050600081604051602001611403919061442e565b60405160208183030381529060405290508095505050505050919050565b600c6020528060005260406000206000915090508060000160405180608001604052908160008201548152602001600182015481526020016002820160009054906101000a900460ff1660ff1660ff1681526020016002820160019054906101000a900460ff1660ff1660ff1681525050908060030160405180608001604052908160008201548152602001600182015481526020016002820160009054906101000a900460ff1660ff1660ff1681526020016002820160019054906101000a900460ff1660ff1660ff1681525050908060060160405180608001604052908160008201548152602001600182015481526020016002820160009054906101000a900460ff1660ff1660ff1681526020016002820160019054906101000a900460ff1660ff1660ff1681525050908060090160405180608001604052908160008201548152602001600182015481526020016002820160009054906101000a900460ff1660ff1660ff1681526020016002820160019054906101000a900460ff1660ff1660ff16815250509080600c0180546115bc90613582565b80601f01602080910402602001604051908101604052809291908181526020018280546115e890613582565b80156116355780601f1061160a57610100808354040283529160200191611635565b820191906000526020600020905b81548152906001019060200180831161161857829003601f168201915b5050505050905085565b6000600560008473ffffffffffffffffffffffffffffffffffffffff1673ffffffffffffffffffffffffffffffffffffffff16815260200190815260200160002060008373ffffffffffffffffffffffffffffffffffffffff1673ffffffffffffffffffffffffffffffffffffffff16815260200190815260200160002060009054906101000a900460ff16905092915050565b6116db6119c7565b73ffffffffffffffffffffffffffffffffffffffff166116f9610e6c565b73ffffffffffffffffffffffffffffffffffffffff161461174f576040517f08c379a000000000000000000000000000000000000000000000000000000000815260040161174690613abe565b60405180910390fd5b600073ffffffffffffffffffffffffffffffffffffffff168173ffffffffffffffffffffffffffffffffffffffff16036117be576040517f08c379a00000000000000000000000000000000000000000000000000000000081526004016117b5906144c2565b60405180910390fd5b6117c781611dcc565b50565b611860816040516024016117de9190612eba565b6040516020818303038152906040527f41304fac000000000000000000000000000000000000000000000000000000007bffffffffffffffffffffffffffffffffffffffffffffffffffffffff19166020820180517bffffffffffffffffffffffffffffffffffffffffffffffffffffffff838183161783525050505061241c565b50565b6001816000016000828254019250508190555050565b60007f80ac58cd000000000000000000000000000000000000000000000000000000007bffffffffffffffffffffffffffffffffffffffffffffffffffffffff1916827bffffffffffffffffffffffffffffffffffffffffffffffffffffffff1916148061194457507f5b5e139f000000000000000000000000000000000000000000000000000000007bffffffffffffffffffffffffffffffffffffffffffffffffffffffff1916827bffffffffffffffffffffffffffffffffffffffffffffffffffffffff1916145b80611954575061195382612445565b5b9050919050565b60008073ffffffffffffffffffffffffffffffffffffffff166002600084815260200190815260200160002060009054906101000a900473ffffffffffffffffffffffffffffffffffffffff1673ffffffffffffffffffffffffffffffffffffffff1614159050919050565b600033905090565b816004600083815260200190815260200160002060006101000a81548173ffffffffffffffffffffffffffffffffffffffff021916908373ffffffffffffffffffffffffffffffffffffffff160217905550808273ffffffffffffffffffffffffffffffffffffffff16611a4283610931565b73ffffffffffffffffffffffffffffffffffffffff167f8c5be1e5ebec7d5bd14f71427d1e84f3dd0314c0f7b2291e5b200ac8c7c3b92560405160405180910390a45050565b6000611a938261195b565b611ad2576040517f08c379a0000000000000000000000000000000000000000000000000000000008152600401611ac990614554565b60405180910390fd5b6000611add83610931565b90508073ffffffffffffffffffffffffffffffffffffffff168473ffffffffffffffffffffffffffffffffffffffff161480611b4c57508373ffffffffffffffffffffffffffffffffffffffff16611b34846105a6565b73ffffffffffffffffffffffffffffffffffffffff16145b80611b5d5750611b5c818561163f565b5b91505092915050565b8273ffffffffffffffffffffffffffffffffffffffff16611b8682610931565b73ffffffffffffffffffffffffffffffffffffffff1614611bdc576040517f08c379a0000000000000000000000000000000000000000000000000000000008152600401611bd3906145e6565b60405180910390fd5b600073ffffffffffffffffffffffffffffffffffffffff168273ffffffffffffffffffffffffffffffffffffffff1603611c4b576040517f08c379a0000000000000000000000000000000000000000000000000000000008152600401611c4290614678565b60405180910390fd5b611c568383836124af565b611c616000826119cf565b6001600360008573ffffffffffffffffffffffffffffffffffffffff1673ffffffffffffffffffffffffffffffffffffffff1681526020019081526020016000206000828254611cb191906146c7565b925050819055506001600360008473ffffffffffffffffffffffffffffffffffffffff1673ffffffffffffffffffffffffffffffffffffffff1681526020019081526020016000206000828254611d0891906146fb565b92505081905550816002600083815260200190815260200160002060006101000a81548173ffffffffffffffffffffffffffffffffffffffff021916908373ffffffffffffffffffffffffffffffffffffffff160217905550808273ffffffffffffffffffffffffffffffffffffffff168473ffffffffffffffffffffffffffffffffffffffff167fddf252ad1be2c89b69c2b068fc378daa952ba7f163c4a11628f55a4df523b3ef60405160405180910390a4611dc78383836125c1565b505050565b6000600a60009054906101000a900473ffffffffffffffffffffffffffffffffffffffff16905081600a60006101000a81548173ffffffffffffffffffffffffffffffffffffffff021916908373ffffffffffffffffffffffffffffffffffffffff1602179055508173ffffffffffffffffffffffffffffffffffffffff168173ffffffffffffffffffffffffffffffffffffffff167f8be0079c531659141344cd1fd0a4f28419497f9722a3daafe3b4186f6b6457e060405160405180910390a35050565b600081600001549050919050565b611eba8282604051806020016040528060008152506125c6565b5050565b611f58838383604051602401611ed693929190614751565b6040516020818303038152906040527f07c81217000000000000000000000000000000000000000000000000000000007bffffffffffffffffffffffffffffffffffffffffffffffffffffffff19166020820180517bffffffffffffffffffffffffffffffffffffffffffffffffffffffff838183161783525050505061241c565b505050565b8173ffffffffffffffffffffffffffffffffffffffff168373ffffffffffffffffffffffffffffffffffffffff1603611fcb576040517f08c379a0000000000000000000000000000000000000000000000000000000008152600401611fc2906147db565b60405180910390fd5b80600560008573ffffffffffffffffffffffffffffffffffffffff1673ffffffffffffffffffffffffffffffffffffffff16815260200190815260200160002060008473ffffffffffffffffffffffffffffffffffffffff1673ffffffffffffffffffffffffffffffffffffffff16815260200190815260200160002060006101000a81548160ff0219169083151502179055508173ffffffffffffffffffffffffffffffffffffffff168373ffffffffffffffffffffffffffffffffffffffff167f17307eab39ab6107e8899845ad3d59bd9653f200f220920489ca2b5937696c31836040516120bc9190612e06565b60405180910390a3505050565b6120d4848484611b66565b6120e084848484612621565b61211f576040517f08c379a00000000000000000000000000000000000000000000000000000000081526004016121169061486d565b60405180910390fd5b50505050565b60606000820361216c576040518060400160405280600181526020017f30000000000000000000000000000000000000000000000000000000000000008152509050612280565b600082905060005b6000821461219e5780806121879061488d565b915050600a826121979190614904565b9150612174565b60008167ffffffffffffffff8111156121ba576121b96130df565b5b6040519080825280601f01601f1916602001820160405280156121ec5781602001600182028036833780820191505090505b5090505b600085146122795760018261220591906146c7565b9150600a856122149190614935565b603061222091906146fb565b60f81b8183815181106122365761223561391f565b5b60200101907effffffffffffffffffffffffffffffffffffffffffffffffffffffffffffff1916908160001a905350600a856122729190614904565b94506121f0565b8093505050505b919050565b6060600082519050600081036122ad5760405180602001604052806000815250915050612417565b600060036002836122be91906146fb565b6122c89190614904565b60046122d49190614966565b905060006020826122e591906146fb565b67ffffffffffffffff8111156122fe576122fd6130df565b5b6040519080825280601f01601f1916602001820160405280156123305781602001600182028036833780820191505090505b5090506000604051806060016040528060408152602001614bca604091399050600181016020830160005b868110156123d45760038101905062ffffff818a015116603f8160121c168401518060081b905060ff603f83600c1c1686015116810190508060081b905060ff603f8360061c1686015116810190508060081b905060ff603f831686015116810190508060e01b9050808452600484019350505061235b565b5060038606600181146123ee57600281146123fe57612409565b613d3d60f01b6002830352612409565b603d60f81b60018303525b508484525050819450505050505b919050565b60008151905060006a636f6e736f6c652e6c6f679050602083016000808483855afa5050505050565b60007f01ffc9a7000000000000000000000000000000000000000000000000000000007bffffffffffffffffffffffffffffffffffffffffffffffffffffffff1916827bffffffffffffffffffffffffffffffffffffffffffffffffffffffff1916149050919050565b6124ba8383836127a8565b600073ffffffffffffffffffffffffffffffffffffffff168373ffffffffffffffffffffffffffffffffffffffff16036124fc576124f7816127ad565b61253b565b8173ffffffffffffffffffffffffffffffffffffffff168373ffffffffffffffffffffffffffffffffffffffff161461253a5761253983826127f6565b5b5b600073ffffffffffffffffffffffffffffffffffffffff168273ffffffffffffffffffffffffffffffffffffffff160361257d5761257881612963565b6125bc565b8273ffffffffffffffffffffffffffffffffffffffff168273ffffffffffffffffffffffffffffffffffffffff16146125bb576125ba8282612a34565b5b5b505050565b505050565b6125d08383612ab3565b6125dd6000848484612621565b61261c576040517f08c379a00000000000000000000000000000000000000000000000000000000081526004016126139061486d565b60405180910390fd5b505050565b60006126428473ffffffffffffffffffffffffffffffffffffffff16612c8c565b1561279b578373ffffffffffffffffffffffffffffffffffffffff1663150b7a0261266b6119c7565b8786866040518563ffffffff1660e01b815260040161268d9493929190614a0a565b6020604051808303816000875af19250505080156126c957506040513d601f19601f820116820180604052508101906126c69190614a6b565b60015b61274b573d80600081146126f9576040519150601f19603f3d011682016040523d82523d6000602084013e6126fe565b606091505b506000815103612743576040517f08c379a000000000000000000000000000000000000000000000000000000000815260040161273a9061486d565b60405180910390fd5b805181602001fd5b63150b7a0260e01b7bffffffffffffffffffffffffffffffffffffffffffffffffffffffff1916817bffffffffffffffffffffffffffffffffffffffffffffffffffffffff1916149150506127a0565b600190505b949350505050565b505050565b6008805490506009600083815260200190815260200160002081905550600881908060018154018082558091505060019003906000526020600020016000909190919091505550565b60006001612803846109e2565b61280d91906146c7565b90506000600760008481526020019081526020016000205490508181146128f2576000600660008673ffffffffffffffffffffffffffffffffffffffff1673ffffffffffffffffffffffffffffffffffffffff168152602001908152602001600020600084815260200190815260200160002054905080600660008773ffffffffffffffffffffffffffffffffffffffff1673ffffffffffffffffffffffffffffffffffffffff168152602001908152602001600020600084815260200190815260200160002081905550816007600083815260200190815260200160002081905550505b6007600084815260200190815260200160002060009055600660008573ffffffffffffffffffffffffffffffffffffffff1673ffffffffffffffffffffffffffffffffffffffff16815260200190815260200160002060008381526020019081526020016000206000905550505050565b6000600160088054905061297791906146c7565b90506000600960008481526020019081526020016000205490506000600883815481106129a7576129a661391f565b5b9060005260206000200154905080600883815481106129c9576129c861391f565b5b906000526020600020018190555081600960008381526020019081526020016000208190555060096000858152602001908152602001600020600090556008805480612a1857612a17614a98565b5b6001900381819060005260206000200160009055905550505050565b6000612a3f836109e2565b905081600660008573ffffffffffffffffffffffffffffffffffffffff1673ffffffffffffffffffffffffffffffffffffffff168152602001908152602001600020600083815260200190815260200160002081905550806007600084815260200190815260200160002081905550505050565b600073ffffffffffffffffffffffffffffffffffffffff168273ffffffffffffffffffffffffffffffffffffffff1603612b22576040517f08c379a0000000000000000000000000000000000000000000000000000000008152600401612b1990614b13565b60405180910390fd5b612b2b8161195b565b15612b6b576040517f08c379a0000000000000000000000000000000000000000000000000000000008152600401612b6290614b7f565b60405180910390fd5b612b77600083836124af565b6001600360008473ffffffffffffffffffffffffffffffffffffffff1673ffffffffffffffffffffffffffffffffffffffff1681526020019081526020016000206000828254612bc791906146fb565b92505081905550816002600083815260200190815260200160002060006101000a81548173ffffffffffffffffffffffffffffffffffffffff021916908373ffffffffffffffffffffffffffffffffffffffff160217905550808273ffffffffffffffffffffffffffffffffffffffff16600073ffffffffffffffffffffffffffffffffffffffff167fddf252ad1be2c89b69c2b068fc378daa952ba7f163c4a11628f55a4df523b3ef60405160405180910390a4612c88600083836125c1565b5050565b6000808273ffffffffffffffffffffffffffffffffffffffff163b119050919050565b828054612cbb90613582565b90600052602060002090601f016020900481019282612cdd5760008555612d24565b82601f10612cf657805160ff1916838001178555612d24565b82800160010185558215612d24579182015b82811115612d23578251825591602001919060010190612d08565b5b509050612d319190612d35565b5090565b5b80821115612d4e576000816000905550600101612d36565b5090565b6000604051905090565b600080fd5b600080fd5b60007fffffffff0000000000000000000000000000000000000000000000000000000082169050919050565b612d9b81612d66565b8114612da657600080fd5b50565b600081359050612db881612d92565b92915050565b600060208284031215612dd457612dd3612d5c565b5b6000612de284828501612da9565b91505092915050565b60008115159050919050565b612e0081612deb565b82525050565b6000602082019050612e1b6000830184612df7565b92915050565b600081519050919050565b600082825260208201905092915050565b60005b83811015612e5b578082015181840152602081019050612e40565b83811115612e6a576000848401525b50505050565b6000601f19601f8301169050919050565b6000612e8c82612e21565b612e968185612e2c565b9350612ea6818560208601612e3d565b612eaf81612e70565b840191505092915050565b60006020820190508181036000830152612ed48184612e81565b905092915050565b6000819050919050565b612eef81612edc565b8114612efa57600080fd5b50565b600081359050612f0c81612ee6565b92915050565b600060208284031215612f2857612f27612d5c565b5b6000612f3684828501612efd565b91505092915050565b600073ffffffffffffffffffffffffffffffffffffffff82169050919050565b6000612f6a82612f3f565b9050919050565b612f7a81612f5f565b82525050565b6000602082019050612f956000830184612f71565b92915050565b612fa481612f5f565b8114612faf57600080fd5b50565b600081359050612fc181612f9b565b92915050565b60008060408385031215612fde57612fdd612d5c565b5b6000612fec85828601612fb2565b9250506020612ffd85828601612efd565b9150509250929050565b61301081612edc565b82525050565b600060208201905061302b6000830184613007565b92915050565b60008060006060848603121561304a57613049612d5c565b5b600061305886828701612fb2565b935050602061306986828701612fb2565b925050604061307a86828701612efd565b9150509250925092565b60006020828403121561309a57613099612d5c565b5b60006130a884828501612fb2565b91505092915050565b600080fd5b6000608082840312156130cc576130cb6130b1565b5b81905092915050565b600080fd5b600080fd5b7f4e487b7100000000000000000000000000000000000000000000000000000000600052604160045260246000fd5b61311782612e70565b810181811067ffffffffffffffff82111715613136576131356130df565b5b80604052505050565b6000613149612d52565b9050613155828261310e565b919050565b600067ffffffffffffffff821115613175576131746130df565b5b61317e82612e70565b9050602081019050919050565b82818337600083830152505050565b60006131ad6131a88461315a565b61313f565b9050828152602081018484840111156131c9576131c86130da565b5b6131d484828561318b565b509392505050565b600082601f8301126131f1576131f06130d5565b5b813561320184826020860161319a565b91505092915050565b6000806000806000610220868803121561322757613226612d5c565b5b6000613235888289016130b6565b9550506080613246888289016130b6565b945050610100613258888289016130b6565b93505061018061326a888289016130b6565b92505061020086013567ffffffffffffffff81111561328c5761328b612d61565b5b613298888289016131dc565b9150509295509295909350565b6132ae81612deb565b81146132b957600080fd5b50565b6000813590506132cb816132a5565b92915050565b600080604083850312156132e8576132e7612d5c565b5b60006132f685828601612fb2565b9250506020613307858286016132bc565b9150509250929050565b600067ffffffffffffffff82111561332c5761332b6130df565b5b61333582612e70565b9050602081019050919050565b600061335561335084613311565b61313f565b905082815260208101848484011115613371576133706130da565b5b61337c84828561318b565b509392505050565b600082601f830112613399576133986130d5565b5b81356133a9848260208601613342565b91505092915050565b600080600080608085870312156133cc576133cb612d5c565b5b60006133da87828801612fb2565b94505060206133eb87828801612fb2565b93505060406133fc87828801612efd565b925050606085013567ffffffffffffffff81111561341d5761341c612d61565b5b61342987828801613384565b91505092959194509250565b61343e81612edc565b82525050565b600060ff82169050919050565b61345a81613444565b82525050565b6080820160008201516134766000850182613435565b5060208201516134896020850182613435565b50604082015161349c6040850182613451565b5060608201516134af6060850182613451565b50505050565b6000610220820190506134cb6000830188613460565b6134d86080830187613460565b6134e6610100830186613460565b6134f4610180830185613460565b8181036102008301526135078184612e81565b90509695505050505050565b6000806040838503121561352a57613529612d5c565b5b600061353885828601612fb2565b925050602061354985828601612fb2565b9150509250929050565b7f4e487b7100000000000000000000000000000000000000000000000000000000600052602260045260246000fd5b6000600282049050600182168061359a57607f821691505b6020821081036135ad576135ac613553565b5b50919050565b7f4552433732313a20617070726f76656420717565727920666f72206e6f6e657860008201527f697374656e7420746f6b656e0000000000000000000000000000000000000000602082015250565b600061360f602c83612e2c565b915061361a826135b3565b604082019050919050565b6000602082019050818103600083015261363e81613602565b9050919050565b7f4552433732313a20617070726f76616c20746f2063757272656e74206f776e6560008201527f7200000000000000000000000000000000000000000000000000000000000000602082015250565b60006136a1602183612e2c565b91506136ac82613645565b604082019050919050565b600060208201905081810360008301526136d081613694565b9050919050565b7f4552433732313a20617070726f76652063616c6c6572206973206e6f74206f7760008201527f6e6572206e6f7220617070726f76656420666f7220616c6c0000000000000000602082015250565b6000613733603883612e2c565b915061373e826136d7565b604082019050919050565b6000602082019050818103600083015261376281613726565b9050919050565b7f4552433732313a207472616e736665722063616c6c6572206973206e6f74206f60008201527f776e6572206e6f7220617070726f766564000000000000000000000000000000602082015250565b60006137c5603183612e2c565b91506137d082613769565b604082019050919050565b600060208201905081810360008301526137f4816137b8565b9050919050565b7f455243373231456e756d657261626c653a206f776e657220696e646578206f7560008201527f74206f6620626f756e6473000000000000000000000000000000000000000000602082015250565b6000613857602b83612e2c565b9150613862826137fb565b604082019050919050565b600060208201905081810360008301526138868161384a565b9050919050565b7f455243373231456e756d657261626c653a20676c6f62616c20696e646578206f60008201527f7574206f6620626f756e64730000000000000000000000000000000000000000602082015250565b60006138e9602c83612e2c565b91506138f48261388d565b604082019050919050565b60006020820190508181036000830152613918816138dc565b9050919050565b7f4e487b7100000000000000000000000000000000000000000000000000000000600052603260045260246000fd5b7f4552433732313a206f776e657220717565727920666f72206e6f6e657869737460008201527f656e7420746f6b656e0000000000000000000000000000000000000000000000602082015250565b60006139aa602983612e2c565b91506139b58261394e565b604082019050919050565b600060208201905081810360008301526139d98161399d565b9050919050565b7f4552433732313a2062616c616e636520717565727920666f7220746865207a6560008201527f726f206164647265737300000000000000000000000000000000000000000000602082015250565b6000613a3c602a83612e2c565b9150613a47826139e0565b604082019050919050565b60006020820190508181036000830152613a6b81613a2f565b9050919050565b7f4f776e61626c653a2063616c6c6572206973206e6f7420746865206f776e6572600082015250565b6000613aa8602083612e2c565b9150613ab382613a72565b602082019050919050565b60006020820190508181036000830152613ad781613a9b565b9050919050565b7f596f752063616e206f6e6c792068617665206f6e65204e465421000000000000600082015250565b6000613b14601a83612e2c565b9150613b1f82613ade565b602082019050919050565b60006020820190508181036000830152613b4381613b07565b9050919050565b600080fd5b613b5881613444565b8114613b6357600080fd5b50565b600081359050613b7581613b4f565b92915050565b600060808284031215613b9157613b90613b4a565b5b613b9b608061313f565b90506000613bab84828501612efd565b6000830152506020613bbf84828501612efd565b6020830152506040613bd384828501613b66565b6040830152506060613be784828501613b66565b60608301525092915050565b600060808284031215613c0957613c08612d5c565b5b6000613c1784828501613b7b565b91505092915050565b6000604082019050613c356000830185612f71565b613c426020830184613007565b9392505050565b600081905092915050565b7f2267656f6d65747279223a207b2274797065223a2022506f6c79676f6e222c2060008201527f22636f6f7264696e61746573223a205b5b5b0000000000000000000000000000602082015250565b6000613cb0603283613c49565b9150613cbb82613c54565b603282019050919050565b6000613cd182612e21565b613cdb8185613c49565b9350613ceb818560208601612e3d565b80840191505092915050565b7f2c00000000000000000000000000000000000000000000000000000000000000600082015250565b6000613d2d600183613c49565b9150613d3882613cf7565b600182019050919050565b7f5d2c205b00000000000000000000000000000000000000000000000000000000600082015250565b6000613d79600483613c49565b9150613d8482613d43565b600482019050919050565b7f5d5d5d7d7d5d0000000000000000000000000000000000000000000000000000600082015250565b6000613dc5600683613c49565b9150613dd082613d8f565b600682019050919050565b6000613de682613ca3565b9150613df2828d613cc6565b9150613dfd82613d20565b9150613e09828c613cc6565b9150613e1482613d6c565b9150613e20828b613cc6565b9150613e2b82613d20565b9150613e37828a613cc6565b9150613e4282613d6c565b9150613e4e8289613cc6565b9150613e5982613d20565b9150613e658288613cc6565b9150613e7082613d6c565b9150613e7c8287613cc6565b9150613e8782613d20565b9150613e938286613cc6565b9150613e9e82613d6c565b9150613eaa8285613cc6565b9150613eb582613d20565b9150613ec18284613cc6565b9150613ecc82613db8565b91508190509b9a5050505050505050505050565b7f22697357657374223a205b000000000000000000000000000000000000000000600082015250565b6000613f16600b83613c49565b9150613f2182613ee0565b600b82019050919050565b7f5d2c000000000000000000000000000000000000000000000000000000000000600082015250565b6000613f62600283613c49565b9150613f6d82613f2c565b600282019050919050565b7f226973536f757468223a205b0000000000000000000000000000000000000000600082015250565b6000613fae600c83613c49565b9150613fb982613f78565b600c82019050919050565b7f5d00000000000000000000000000000000000000000000000000000000000000600082015250565b6000613ffa600183613c49565b915061400582613fc4565b600182019050919050565b600061401b82613f09565b9150614027828d613cc6565b915061403282613d20565b915061403e828c613cc6565b915061404982613d20565b9150614055828b613cc6565b915061406082613d20565b915061406c828a613cc6565b915061407782613d20565b91506140838289613cc6565b915061408e82613f55565b915061409982613fa1565b91506140a58288613cc6565b91506140b082613d20565b91506140bc8287613cc6565b91506140c782613d20565b91506140d38286613cc6565b91506140de82613d20565b91506140ea8285613cc6565b91506140f582613d20565b91506141018284613cc6565b915061410c82613fed565b91508190509b9a5050505050505050505050565b7f7b2274797065223a202246656174757265436f6c6c656374696f6e222c20226660008201527f65617475726573223a205b7b2274797065223a202246656174757265222c202260208201527f70726f70657274696573223a207b20226e616d65223a20224d6170204e46542060408201527f2300000000000000000000000000000000000000000000000000000000000000606082015250565b60006141c8606183613c49565b91506141d382614120565b606182019050919050565b7f222c20226964223a200000000000000000000000000000000000000000000000600082015250565b6000614214600983613c49565b915061421f826141de565b600982019050919050565b7f2c2022636f6c6f72223a20220000000000000000000000000000000000000000600082015250565b6000614260600c83613c49565b915061426b8261422a565b600c82019050919050565b7f227d2c0000000000000000000000000000000000000000000000000000000000600082015250565b60006142ac600383613c49565b91506142b782614276565b600382019050919050565b600081519050919050565b600081905092915050565b60006142e3826142c2565b6142ed81856142cd565b93506142fd818560208601612e3d565b80840191505092915050565b7f7d00000000000000000000000000000000000000000000000000000000000000600082015250565b600061433f600183613c49565b915061434a82614309565b600182019050919050565b6000614360826141bb565b915061436c8288613cc6565b915061437782614207565b91506143838287613cc6565b915061438e82614253565b915061439a8286613cc6565b91506143a58261429f565b91506143b182856142d8565b91506143bc82613d20565b91506143c882846142d8565b91506143d382614332565b91508190509695505050505050565b7f646174613a6170706c69636174696f6e2f6a736f6e3b6261736536342c000000600082015250565b6000614418601d83613c49565b9150614423826143e2565b601d82019050919050565b60006144398261440b565b91506144458284613cc6565b915081905092915050565b7f4f776e61626c653a206e6577206f776e657220697320746865207a65726f206160008201527f6464726573730000000000000000000000000000000000000000000000000000602082015250565b60006144ac602683612e2c565b91506144b782614450565b604082019050919050565b600060208201905081810360008301526144db8161449f565b9050919050565b7f4552433732313a206f70657261746f7220717565727920666f72206e6f6e657860008201527f697374656e7420746f6b656e0000000000000000000000000000000000000000602082015250565b600061453e602c83612e2c565b9150614549826144e2565b604082019050919050565b6000602082019050818103600083015261456d81614531565b9050919050565b7f4552433732313a207472616e736665722066726f6d20696e636f72726563742060008201527f6f776e6572000000000000000000000000000000000000000000000000000000602082015250565b60006145d0602583612e2c565b91506145db82614574565b604082019050919050565b600060208201905081810360008301526145ff816145c3565b9050919050565b7f4552433732313a207472616e7366657220746f20746865207a65726f2061646460008201527f7265737300000000000000000000000000000000000000000000000000000000602082015250565b6000614662602483612e2c565b915061466d82614606565b604082019050919050565b6000602082019050818103600083015261469181614655565b9050919050565b7f4e487b7100000000000000000000000000000000000000000000000000000000600052601160045260246000fd5b60006146d282612edc565b91506146dd83612edc565b9250828210156146f0576146ef614698565b5b828203905092915050565b600061470682612edc565b915061471183612edc565b9250827fffffffffffffffffffffffffffffffffffffffffffffffffffffffffffffffff0382111561474657614745614698565b5b828201905092915050565b6000606082019050818103600083015261476b8186612e81565b905061477a6020830185612f71565b6147876040830184613007565b949350505050565b7f4552433732313a20617070726f766520746f2063616c6c657200000000000000600082015250565b60006147c5601983612e2c565b91506147d08261478f565b602082019050919050565b600060208201905081810360008301526147f4816147b8565b9050919050565b7f4552433732313a207472616e7366657220746f206e6f6e20455243373231526560008201527f63656976657220696d706c656d656e7465720000000000000000000000000000602082015250565b6000614857603283612e2c565b9150614862826147fb565b604082019050919050565b600060208201905081810360008301526148868161484a565b9050919050565b600061489882612edc565b91507fffffffffffffffffffffffffffffffffffffffffffffffffffffffffffffffff82036148ca576148c9614698565b5b600182019050919050565b7f4e487b7100000000000000000000000000000000000000000000000000000000600052601260045260246000fd5b600061490f82612edc565b915061491a83612edc565b92508261492a576149296148d5565b5b828204905092915050565b600061494082612edc565b915061494b83612edc565b92508261495b5761495a6148d5565b5b828206905092915050565b600061497182612edc565b915061497c83612edc565b9250817fffffffffffffffffffffffffffffffffffffffffffffffffffffffffffffffff04831182151516156149b5576149b4614698565b5b828202905092915050565b600082825260208201905092915050565b60006149dc826142c2565b6149e681856149c0565b93506149f6818560208601612e3d565b6149ff81612e70565b840191505092915050565b6000608082019050614a1f6000830187612f71565b614a2c6020830186612f71565b614a396040830185613007565b8181036060830152614a4b81846149d1565b905095945050505050565b600081519050614a6581612d92565b92915050565b600060208284031215614a8157614a80612d5c565b5b6000614a8f84828501614a56565b91505092915050565b7f4e487b7100000000000000000000000000000000000000000000000000000000600052603160045260246000fd5b7f4552433732313a206d696e7420746f20746865207a65726f2061646472657373600082015250565b6000614afd602083612e2c565b9150614b0882614ac7565b602082019050919050565b60006020820190508181036000830152614b2c81614af0565b9050919050565b7f4552433732313a20746f6b656e20616c7265616479206d696e74656400000000600082015250565b6000614b69601c83612e2c565b9150614b7482614b33565b602082019050919050565b60006020820190508181036000830152614b9881614b5c565b905091905056fe41206e6577204e465420686173206265656e206d696e74656420746f20257320776974682049442025734142434445464748494a4b4c4d4e4f505152535455565758595a6162636465666768696a6b6c6d6e6f707172737475767778797a303132333435363738392b2fa264697066735822122014c94da15502b1d768d4562fbda01f3b0de7b9e124c262b6a2a1d737b2349e6c64736f6c634300080d0033",
  "linkReferences": {},
  "deployedLinkReferences": {}
}