{
  "_format": "hh-sol-artifact-1",
  "contractName": "mapNFT",
  "sourceName": "contracts/mapNFT.sol",
  "abi": [
    {
      "inputs": [],
      "stateMutability": "nonpayable",
      "type": "constructor"
    },
    {
      "anonymous": false,
      "inputs": [
        {
          "indexed": true,
          "internalType": "address",
          "name": "owner",
          "type": "address"
        },
        {
          "indexed": true,
          "internalType": "address",
          "name": "approved",
          "type": "address"
        },
        {
          "indexed": true,
          "internalType": "uint256",
          "name": "tokenId",
          "type": "uint256"
        }
      ],
      "name": "Approval",
      "type": "event"
    },
    {
      "anonymous": false,
      "inputs": [
        {
          "indexed": true,
          "internalType": "address",
          "name": "owner",
          "type": "address"
        },
        {
          "indexed": true,
          "internalType": "address",
          "name": "operator",
          "type": "address"
        },
        {
          "indexed": false,
          "internalType": "bool",
          "name": "approved",
          "type": "bool"
        }
      ],
      "name": "ApprovalForAll",
      "type": "event"
    },
    {
      "anonymous": false,
      "inputs": [
        {
          "indexed": true,
          "internalType": "address",
          "name": "previousOwner",
          "type": "address"
        },
        {
          "indexed": true,
          "internalType": "address",
          "name": "newOwner",
          "type": "address"
        }
      ],
      "name": "OwnershipTransferred",
      "type": "event"
    },
    {
      "anonymous": false,
      "inputs": [
        {
          "indexed": true,
          "internalType": "address",
          "name": "from",
          "type": "address"
        },
        {
          "indexed": true,
          "internalType": "address",
          "name": "to",
          "type": "address"
        },
        {
          "indexed": true,
          "internalType": "uint256",
          "name": "tokenId",
          "type": "uint256"
        }
      ],
      "name": "Transfer",
      "type": "event"
    },
    {
      "anonymous": false,
      "inputs": [
        {
          "indexed": false,
          "internalType": "address",
          "name": "sender",
          "type": "address"
        },
        {
          "indexed": false,
          "internalType": "uint256",
          "name": "tokenId",
          "type": "uint256"
        }
      ],
      "name": "newNftMinted",
      "type": "event"
    },
    {
      "inputs": [
        {
          "internalType": "address",
          "name": "to",
          "type": "address"
        },
        {
          "internalType": "uint256",
          "name": "tokenId",
          "type": "uint256"
        }
      ],
      "name": "approve",
      "outputs": [],
      "stateMutability": "nonpayable",
      "type": "function"
    },
    {
      "inputs": [
        {
          "internalType": "address",
          "name": "owner",
          "type": "address"
        }
      ],
      "name": "balanceOf",
      "outputs": [
        {
          "internalType": "uint256",
          "name": "",
          "type": "uint256"
        }
      ],
      "stateMutability": "view",
      "type": "function"
    },
    {
      "inputs": [
        {
          "internalType": "uint256",
          "name": "tokenId",
          "type": "uint256"
        }
      ],
      "name": "getApproved",
      "outputs": [
        {
          "internalType": "address",
          "name": "",
          "type": "address"
        }
      ],
      "stateMutability": "view",
      "type": "function"
    },
    {
      "inputs": [],
      "name": "getUserNFT",
      "outputs": [
        {
          "internalType": "uint256",
          "name": "",
          "type": "uint256"
        }
      ],
      "stateMutability": "view",
      "type": "function"
    },
    {
      "inputs": [
        {
          "internalType": "address",
          "name": "owner",
          "type": "address"
        },
        {
          "internalType": "address",
          "name": "operator",
          "type": "address"
        }
      ],
      "name": "isApprovedForAll",
      "outputs": [
        {
          "internalType": "bool",
          "name": "",
          "type": "bool"
        }
      ],
      "stateMutability": "view",
      "type": "function"
    },
    {
      "inputs": [
        {
          "components": [
            {
              "internalType": "uint256",
              "name": "long",
              "type": "uint256"
            },
            {
              "internalType": "uint256",
              "name": "lat",
              "type": "uint256"
            },
            {
              "internalType": "uint8",
              "name": "isWest",
              "type": "uint8"
            },
            {
              "internalType": "uint8",
              "name": "isSouth",
              "type": "uint8"
            }
          ],
          "internalType": "struct mapNFT.Coordinate",
          "name": "a",
          "type": "tuple"
        },
        {
          "components": [
            {
              "internalType": "uint256",
              "name": "long",
              "type": "uint256"
            },
            {
              "internalType": "uint256",
              "name": "lat",
              "type": "uint256"
            },
            {
              "internalType": "uint8",
              "name": "isWest",
              "type": "uint8"
            },
            {
              "internalType": "uint8",
              "name": "isSouth",
              "type": "uint8"
            }
          ],
          "internalType": "struct mapNFT.Coordinate",
          "name": "b",
          "type": "tuple"
        },
        {
          "components": [
            {
              "internalType": "uint256",
              "name": "long",
              "type": "uint256"
            },
            {
              "internalType": "uint256",
              "name": "lat",
              "type": "uint256"
            },
            {
              "internalType": "uint8",
              "name": "isWest",
              "type": "uint8"
            },
            {
              "internalType": "uint8",
              "name": "isSouth",
              "type": "uint8"
            }
          ],
          "internalType": "struct mapNFT.Coordinate",
          "name": "c",
          "type": "tuple"
        },
        {
          "components": [
            {
              "internalType": "uint256",
              "name": "long",
              "type": "uint256"
            },
            {
              "internalType": "uint256",
              "name": "lat",
              "type": "uint256"
            },
            {
              "internalType": "uint8",
              "name": "isWest",
              "type": "uint8"
            },
            {
              "internalType": "uint8",
              "name": "isSouth",
              "type": "uint8"
            }
          ],
          "internalType": "struct mapNFT.Coordinate",
          "name": "d",
          "type": "tuple"
        }
      ],
      "name": "mintNFT",
      "outputs": [],
      "stateMutability": "nonpayable",
      "type": "function"
    },
    {
      "inputs": [],
      "name": "name",
      "outputs": [
        {
          "internalType": "string",
          "name": "",
          "type": "string"
        }
      ],
      "stateMutability": "view",
      "type": "function"
    },
    {
      "inputs": [
        {
          "internalType": "address",
          "name": "",
          "type": "address"
        }
      ],
      "name": "nftHolders",
      "outputs": [
        {
          "internalType": "uint256",
          "name": "",
          "type": "uint256"
        }
      ],
      "stateMutability": "view",
      "type": "function"
    },
    {
      "inputs": [
        {
          "internalType": "uint256",
          "name": "",
          "type": "uint256"
        }
      ],
      "name": "nftPolygon",
      "outputs": [
        {
          "components": [
            {
              "internalType": "uint256",
              "name": "long",
              "type": "uint256"
            },
            {
              "internalType": "uint256",
              "name": "lat",
              "type": "uint256"
            },
            {
              "internalType": "uint8",
              "name": "isWest",
              "type": "uint8"
            },
            {
              "internalType": "uint8",
              "name": "isSouth",
              "type": "uint8"
            }
          ],
          "internalType": "struct mapNFT.Coordinate",
          "name": "a",
          "type": "tuple"
        },
        {
          "components": [
            {
              "internalType": "uint256",
              "name": "long",
              "type": "uint256"
            },
            {
              "internalType": "uint256",
              "name": "lat",
              "type": "uint256"
            },
            {
              "internalType": "uint8",
              "name": "isWest",
              "type": "uint8"
            },
            {
              "internalType": "uint8",
              "name": "isSouth",
              "type": "uint8"
            }
          ],
          "internalType": "struct mapNFT.Coordinate",
          "name": "b",
          "type": "tuple"
        },
        {
          "components": [
            {
              "internalType": "uint256",
              "name": "long",
              "type": "uint256"
            },
            {
              "internalType": "uint256",
              "name": "lat",
              "type": "uint256"
            },
            {
              "internalType": "uint8",
              "name": "isWest",
              "type": "uint8"
            },
            {
              "internalType": "uint8",
              "name": "isSouth",
              "type": "uint8"
            }
          ],
          "internalType": "struct mapNFT.Coordinate",
          "name": "c",
          "type": "tuple"
        },
        {
          "components": [
            {
              "internalType": "uint256",
              "name": "long",
              "type": "uint256"
            },
            {
              "internalType": "uint256",
              "name": "lat",
              "type": "uint256"
            },
            {
              "internalType": "uint8",
              "name": "isWest",
              "type": "uint8"
            },
            {
              "internalType": "uint8",
              "name": "isSouth",
              "type": "uint8"
            }
          ],
          "internalType": "struct mapNFT.Coordinate",
          "name": "d",
          "type": "tuple"
        }
      ],
      "stateMutability": "view",
      "type": "function"
    },
    {
      "inputs": [],
      "name": "owner",
      "outputs": [
        {
          "internalType": "address",
          "name": "",
          "type": "address"
        }
      ],
      "stateMutability": "view",
      "type": "function"
    },
    {
      "inputs": [
        {
          "internalType": "uint256",
          "name": "tokenId",
          "type": "uint256"
        }
      ],
      "name": "ownerOf",
      "outputs": [
        {
          "internalType": "address",
          "name": "",
          "type": "address"
        }
      ],
      "stateMutability": "view",
      "type": "function"
    },
    {
      "inputs": [],
      "name": "renounceOwnership",
      "outputs": [],
      "stateMutability": "nonpayable",
      "type": "function"
    },
    {
      "inputs": [
        {
          "internalType": "address",
          "name": "from",
          "type": "address"
        },
        {
          "internalType": "address",
          "name": "to",
          "type": "address"
        },
        {
          "internalType": "uint256",
          "name": "tokenId",
          "type": "uint256"
        }
      ],
      "name": "safeTransferFrom",
      "outputs": [],
      "stateMutability": "nonpayable",
      "type": "function"
    },
    {
      "inputs": [
        {
          "internalType": "address",
          "name": "from",
          "type": "address"
        },
        {
          "internalType": "address",
          "name": "to",
          "type": "address"
        },
        {
          "internalType": "uint256",
          "name": "tokenId",
          "type": "uint256"
        },
        {
          "internalType": "bytes",
          "name": "_data",
          "type": "bytes"
        }
      ],
      "name": "safeTransferFrom",
      "outputs": [],
      "stateMutability": "nonpayable",
      "type": "function"
    },
    {
      "inputs": [
        {
          "internalType": "address",
          "name": "operator",
          "type": "address"
        },
        {
          "internalType": "bool",
          "name": "approved",
          "type": "bool"
        }
      ],
      "name": "setApprovalForAll",
      "outputs": [],
      "stateMutability": "nonpayable",
      "type": "function"
    },
    {
      "inputs": [
        {
          "internalType": "bytes4",
          "name": "interfaceId",
          "type": "bytes4"
        }
      ],
      "name": "supportsInterface",
      "outputs": [
        {
          "internalType": "bool",
          "name": "",
          "type": "bool"
        }
      ],
      "stateMutability": "view",
      "type": "function"
    },
    {
      "inputs": [],
      "name": "symbol",
      "outputs": [
        {
          "internalType": "string",
          "name": "",
          "type": "string"
        }
      ],
      "stateMutability": "view",
      "type": "function"
    },
    {
      "inputs": [
        {
          "internalType": "uint256",
          "name": "index",
          "type": "uint256"
        }
      ],
      "name": "tokenByIndex",
      "outputs": [
        {
          "internalType": "uint256",
          "name": "",
          "type": "uint256"
        }
      ],
      "stateMutability": "view",
      "type": "function"
    },
    {
      "inputs": [
        {
          "internalType": "address",
          "name": "owner",
          "type": "address"
        },
        {
          "internalType": "uint256",
          "name": "index",
          "type": "uint256"
        }
      ],
      "name": "tokenOfOwnerByIndex",
      "outputs": [
        {
          "internalType": "uint256",
          "name": "",
          "type": "uint256"
        }
      ],
      "stateMutability": "view",
      "type": "function"
    },
    {
      "inputs": [
        {
          "internalType": "uint256",
          "name": "_tokenId",
          "type": "uint256"
        }
      ],
      "name": "tokenURI",
      "outputs": [
        {
          "internalType": "string",
          "name": "",
          "type": "string"
        }
      ],
      "stateMutability": "view",
      "type": "function"
    },
    {
      "inputs": [],
      "name": "totalSupply",
      "outputs": [
        {
          "internalType": "uint256",
          "name": "",
          "type": "uint256"
        }
      ],
      "stateMutability": "view",
      "type": "function"
    },
    {
      "inputs": [
        {
          "internalType": "address",
          "name": "from",
          "type": "address"
        },
        {
          "internalType": "address",
          "name": "to",
          "type": "address"
        },
        {
          "internalType": "uint256",
          "name": "tokenId",
          "type": "uint256"
        }
      ],
      "name": "transferFrom",
      "outputs": [],
      "stateMutability": "nonpayable",
      "type": "function"
    },
    {
      "inputs": [
        {
          "internalType": "address",
          "name": "newOwner",
          "type": "address"
        }
      ],
      "name": "transferOwnership",
      "outputs": [],
      "stateMutability": "nonpayable",
      "type": "function"
    }
  ],
  "bytecode": "0x60806040523480156200001157600080fd5b506040518060400160405280600681526020017f6d61704e465400000000000000000000000000000000000000000000000000008152506040518060400160405280600381526020017f4d41500000000000000000000000000000000000000000000000000000000000815250816000908051906020019062000096929190620002ea565b508060019080519060200190620000af929190620002ea565b505050620000d2620000c66200013a60201b60201c565b6200014260201b60201c565b6200011d6040518060400160405280601981526020017f4d6170204e465420636f6e7472616374206372656174656421000000000000008152506200020860201b6200167f1760201c565b62000134600b620002ab60201b620017181760201c565b620004c6565b600033905090565b6000600a60009054906101000a900473ffffffffffffffffffffffffffffffffffffffff16905081600a60006101000a81548173ffffffffffffffffffffffffffffffffffffffff021916908373ffffffffffffffffffffffffffffffffffffffff1602179055508173ffffffffffffffffffffffffffffffffffffffff168173ffffffffffffffffffffffffffffffffffffffff167f8be0079c531659141344cd1fd0a4f28419497f9722a3daafe3b4186f6b6457e060405160405180910390a35050565b620002a8816040516024016200021f91906200043e565b6040516020818303038152906040527f41304fac000000000000000000000000000000000000000000000000000000007bffffffffffffffffffffffffffffffffffffffffffffffffffffffff19166020820180517bffffffffffffffffffffffffffffffffffffffffffffffffffffffff8381831617835250505050620002c160201b60201c565b50565b6001816000016000828254019250508190555050565b60008151905060006a636f6e736f6c652e6c6f679050602083016000808483855afa5050505050565b828054620002f89062000491565b90600052602060002090601f0160209004810192826200031c576000855562000368565b82601f106200033757805160ff191683800117855562000368565b8280016001018555821562000368579182015b82811115620003675782518255916020019190600101906200034a565b5b5090506200037791906200037b565b5090565b5b80821115620003965760008160009055506001016200037c565b5090565b600081519050919050565b600082825260208201905092915050565b60005b83811015620003d6578082015181840152602081019050620003b9565b83811115620003e6576000848401525b50505050565b6000601f19601f8301169050919050565b60006200040a826200039a565b620004168185620003a5565b935062000428818560208601620003b6565b6200043381620003ec565b840191505092915050565b600060208201905081810360008301526200045a8184620003fd565b905092915050565b7f4e487b7100000000000000000000000000000000000000000000000000000000600052602260045260246000fd5b60006002820490506001821680620004aa57607f821691505b602082108103620004c057620004bf62000462565b5b50919050565b61490580620004d66000396000f3fe608060405234801561001057600080fd5b506004361061014d5760003560e01c806370a08231116100c3578063a3b46b441161007c578063a3b46b44146103b2578063b88d4fde146103ce578063c87b56dd146103ea578063d06a0e911461041a578063e985e9c51461044d578063f2fde38b1461047d5761014d565b806370a08231146102f0578063715018a6146103205780637df124a11461032a5780638da5cb5b1461035a57806395d89b4114610378578063a22cb465146103965761014d565b806323b872dd1161011557806323b872dd1461020a5780632f745c591461022657806334238d931461025657806342842e0e146102745780634f6ccce7146102905780636352211e146102c05761014d565b806301ffc9a71461015257806306fdde0314610182578063081812fc146101a0578063095ea7b3146101d057806318160ddd146101ec575b600080fd5b61016c60048036038101906101679190612bd0565b610499565b6040516101799190612c18565b60405180910390f35b61018a610513565b6040516101979190612ccc565b60405180910390f35b6101ba60048036038101906101b59190612d24565b6105a5565b6040516101c79190612d92565b60405180910390f35b6101ea60048036038101906101e59190612dd9565b61062a565b005b6101f4610741565b6040516102019190612e28565b60405180910390f35b610224600480360381019061021f9190612e43565b61074e565b005b610240600480360381019061023b9190612dd9565b6107ae565b60405161024d9190612e28565b60405180910390f35b61025e610853565b60405161026b9190612e28565b60405180910390f35b61028e60048036038101906102899190612e43565b61089f565b005b6102aa60048036038101906102a59190612d24565b6108bf565b6040516102b79190612e28565b60405180910390f35b6102da60048036038101906102d59190612d24565b610930565b6040516102e79190612d92565b60405180910390f35b61030a60048036038101906103059190612e96565b6109e1565b6040516103179190612e28565b60405180910390f35b610328610a98565b005b610344600480360381019061033f9190612e96565b610b20565b6040516103519190612e28565b60405180910390f35b610362610b38565b60405161036f9190612d92565b60405180910390f35b610380610b62565b60405161038d9190612ccc565b60405180910390f35b6103b060048036038101906103ab9190612eef565b610bf4565b005b6103cc60048036038101906103c79190612f53565b610c0a565b005b6103e860048036038101906103e391906130f2565b610f19565b005b61040460048036038101906103ff9190612d24565b610f7b565b6040516104119190612ccc565b60405180910390f35b610434600480360381019061042f9190612d24565b611364565b60405161044494939291906131f5565b60405180910390f35b6104676004803603810190610462919061323d565b6114f4565b6040516104749190612c18565b60405180910390f35b61049760048036038101906104929190612e96565b611588565b005b60007f780e9d63000000000000000000000000000000000000000000000000000000007bffffffffffffffffffffffffffffffffffffffffffffffffffffffff1916827bffffffffffffffffffffffffffffffffffffffffffffffffffffffff1916148061050c575061050b8261172e565b5b9050919050565b606060008054610522906132ac565b80601f016020809104026020016040519081016040528092919081815260200182805461054e906132ac565b801561059b5780601f106105705761010080835404028352916020019161059b565b820191906000526020600020905b81548152906001019060200180831161057e57829003601f168201915b5050505050905090565b60006105b082611810565b6105ef576040517f08c379a00000000000000000000000000000000000000000000000000000000081526004016105e69061334f565b60405180910390fd5b6004600083815260200190815260200160002060009054906101000a900473ffffffffffffffffffffffffffffffffffffffff169050919050565b600061063582610930565b90508073ffffffffffffffffffffffffffffffffffffffff168373ffffffffffffffffffffffffffffffffffffffff16036106a5576040517f08c379a000000000000000000000000000000000000000000000000000000000815260040161069c906133e1565b60405180910390fd5b8073ffffffffffffffffffffffffffffffffffffffff166106c461187c565b73ffffffffffffffffffffffffffffffffffffffff1614806106f357506106f2816106ed61187c565b6114f4565b5b610732576040517f08c379a000000000000000000000000000000000000000000000000000000000815260040161072990613473565b60405180910390fd5b61073c8383611884565b505050565b6000600880549050905090565b61075f61075961187c565b8261193d565b61079e576040517f08c379a000000000000000000000000000000000000000000000000000000000815260040161079590613505565b60405180910390fd5b6107a9838383611a1b565b505050565b60006107b9836109e1565b82106107fa576040517f08c379a00000000000000000000000000000000000000000000000000000000081526004016107f190613597565b60405180910390fd5b600660008473ffffffffffffffffffffffffffffffffffffffff1673ffffffffffffffffffffffffffffffffffffffff168152602001908152602001600020600083815260200190815260200160002054905092915050565b600080600d60003373ffffffffffffffffffffffffffffffffffffffff1673ffffffffffffffffffffffffffffffffffffffff1681526020019081526020016000205490508091505090565b6108ba83838360405180602001604052806000815250610f19565b505050565b60006108c9610741565b821061090a576040517f08c379a000000000000000000000000000000000000000000000000000000000815260040161090190613629565b60405180910390fd5b6008828154811061091e5761091d613649565b5b90600052602060002001549050919050565b6000806002600084815260200190815260200160002060009054906101000a900473ffffffffffffffffffffffffffffffffffffffff169050600073ffffffffffffffffffffffffffffffffffffffff168173ffffffffffffffffffffffffffffffffffffffff16036109d8576040517f08c379a00000000000000000000000000000000000000000000000000000000081526004016109cf906136ea565b60405180910390fd5b80915050919050565b60008073ffffffffffffffffffffffffffffffffffffffff168273ffffffffffffffffffffffffffffffffffffffff1603610a51576040517f08c379a0000000000000000000000000000000000000000000000000000000008152600401610a489061377c565b60405180910390fd5b600360008373ffffffffffffffffffffffffffffffffffffffff1673ffffffffffffffffffffffffffffffffffffffff168152602001908152602001600020549050919050565b610aa061187c565b73ffffffffffffffffffffffffffffffffffffffff16610abe610b38565b73ffffffffffffffffffffffffffffffffffffffff1614610b14576040517f08c379a0000000000000000000000000000000000000000000000000000000008152600401610b0b906137e8565b60405180910390fd5b610b1e6000611c81565b565b600d6020528060005260406000206000915090505481565b6000600a60009054906101000a900473ffffffffffffffffffffffffffffffffffffffff16905090565b606060018054610b71906132ac565b80601f0160208091040260200160405190810160405280929190818152602001828054610b9d906132ac565b8015610bea5780601f10610bbf57610100808354040283529160200191610bea565b820191906000526020600020905b815481529060010190602001808311610bcd57829003601f168201915b5050505050905090565b610c06610bff61187c565b8383611d47565b5050565b6000610c16600b611eb3565b90506001610c23336109e1565b10610c63576040517f08c379a0000000000000000000000000000000000000000000000000000000008152600401610c5a90613854565b60405180910390fd5b610c6d3382611ec1565b604051806080016040528086803603810190610c89919061391d565b815260200185803603810190610c9f919061391d565b815260200184803603810190610cb5919061391d565b815260200183803603810190610ccb919061391d565b815250600c6000838152602001908152602001600020600082015181600001600082015181600001556020820151816001015560408201518160020160006101000a81548160ff021916908360ff16021790555060608201518160020160016101000a81548160ff021916908360ff1602179055505050602082015181600301600082015181600001556020820151816001015560408201518160020160006101000a81548160ff021916908360ff16021790555060608201518160020160016101000a81548160ff021916908360ff1602179055505050604082015181600601600082015181600001556020820151816001015560408201518160020160006101000a81548160ff021916908360ff16021790555060608201518160020160016101000a81548160ff021916908360ff1602179055505050606082015181600901600082015181600001556020820151816001015560408201518160020160006101000a81548160ff021916908360ff16021790555060608201518160020160016101000a81548160ff021916908360ff1602179055505050905050610e8b6040518060600160405280602a8152602001614866602a91393383611edf565b80600d60003373ffffffffffffffffffffffffffffffffffffffff1673ffffffffffffffffffffffffffffffffffffffff16815260200190815260200160002081905550610ed9600b611718565b7f235834212a6b87f1642d2129e022f30aee6f09dd44f80bca0f551dc93b281ac43382604051610f0a92919061394a565b60405180910390a15050505050565b610f2a610f2461187c565b8361193d565b610f69576040517f08c379a0000000000000000000000000000000000000000000000000000000008152600401610f6090613505565b60405180910390fd5b610f7584848484611f7e565b50505050565b60606000600c60008481526020019081526020016000206040518060800160405290816000820160405180608001604052908160008201548152602001600182015481526020016002820160009054906101000a900460ff1660ff1660ff1681526020016002820160019054906101000a900460ff1660ff1660ff168152505081526020016003820160405180608001604052908160008201548152602001600182015481526020016002820160009054906101000a900460ff1660ff1660ff1681526020016002820160019054906101000a900460ff1660ff1660ff168152505081526020016006820160405180608001604052908160008201548152602001600182015481526020016002820160009054906101000a900460ff1660ff1660ff1681526020016002820160019054906101000a900460ff1660ff1660ff168152505081526020016009820160405180608001604052908160008201548152602001600182015481526020016002820160009054906101000a900460ff1660ff1660ff1681526020016002820160019054906101000a900460ff1660ff1660ff1681525050815250509050600061113a826000015160000151611fda565b61114b836000015160200151611fda565b61115c846020015160000151611fda565b61116d856020015160200151611fda565b61117e866040015160000151611fda565b61118f876040015160200151611fda565b6111a0886060015160000151611fda565b6111b1896060015160200151611fda565b6111c28a6000015160000151611fda565b6111d38b6000015160200151611fda565b6040516020016111ec9a99989796959493929190613b05565b6040516020818303038152906040529050600061121383600001516040015160ff16611fda565b61122784602001516040015160ff16611fda565b61123b85604001516040015160ff16611fda565b61124f86606001516040015160ff16611fda565b61126387600001516040015160ff16611fda565b61127788600001516060015160ff16611fda565b61128b89602001516060015160ff16611fda565b61129f8a604001516060015160ff16611fda565b6112b38b606001516060015160ff16611fda565b6112c78c600001516060015160ff16611fda565b6040516020016112e09a99989796959493929190613d3a565b604051602081830303815290604052905060006113316112ff87611fda565b61130888611fda565b858560405160200161131d9493929190614033565b60405160208183030381529060405261213a565b905060008160405160200161134691906140f4565b60405160208183030381529060405290508095505050505050919050565b600c6020528060005260406000206000915090508060000160405180608001604052908160008201548152602001600182015481526020016002820160009054906101000a900460ff1660ff1660ff1681526020016002820160019054906101000a900460ff1660ff1660ff1681525050908060030160405180608001604052908160008201548152602001600182015481526020016002820160009054906101000a900460ff1660ff1660ff1681526020016002820160019054906101000a900460ff1660ff1660ff1681525050908060060160405180608001604052908160008201548152602001600182015481526020016002820160009054906101000a900460ff1660ff1660ff1681526020016002820160019054906101000a900460ff1660ff1660ff1681525050908060090160405180608001604052908160008201548152602001600182015481526020016002820160009054906101000a900460ff1660ff1660ff1681526020016002820160019054906101000a900460ff1660ff1660ff1681525050905084565b6000600560008473ffffffffffffffffffffffffffffffffffffffff1673ffffffffffffffffffffffffffffffffffffffff16815260200190815260200160002060008373ffffffffffffffffffffffffffffffffffffffff1673ffffffffffffffffffffffffffffffffffffffff16815260200190815260200160002060009054906101000a900460ff16905092915050565b61159061187c565b73ffffffffffffffffffffffffffffffffffffffff166115ae610b38565b73ffffffffffffffffffffffffffffffffffffffff1614611604576040517f08c379a00000000000000000000000000000000000000000000000000000000081526004016115fb906137e8565b60405180910390fd5b600073ffffffffffffffffffffffffffffffffffffffff168173ffffffffffffffffffffffffffffffffffffffff1603611673576040517f08c379a000000000000000000000000000000000000000000000000000000000815260040161166a90614188565b60405180910390fd5b61167c81611c81565b50565b611715816040516024016116939190612ccc565b6040516020818303038152906040527f41304fac000000000000000000000000000000000000000000000000000000007bffffffffffffffffffffffffffffffffffffffffffffffffffffffff19166020820180517bffffffffffffffffffffffffffffffffffffffffffffffffffffffff83818316178352505050506122d1565b50565b6001816000016000828254019250508190555050565b60007f80ac58cd000000000000000000000000000000000000000000000000000000007bffffffffffffffffffffffffffffffffffffffffffffffffffffffff1916827bffffffffffffffffffffffffffffffffffffffffffffffffffffffff191614806117f957507f5b5e139f000000000000000000000000000000000000000000000000000000007bffffffffffffffffffffffffffffffffffffffffffffffffffffffff1916827bffffffffffffffffffffffffffffffffffffffffffffffffffffffff1916145b806118095750611808826122fa565b5b9050919050565b60008073ffffffffffffffffffffffffffffffffffffffff166002600084815260200190815260200160002060009054906101000a900473ffffffffffffffffffffffffffffffffffffffff1673ffffffffffffffffffffffffffffffffffffffff1614159050919050565b600033905090565b816004600083815260200190815260200160002060006101000a81548173ffffffffffffffffffffffffffffffffffffffff021916908373ffffffffffffffffffffffffffffffffffffffff160217905550808273ffffffffffffffffffffffffffffffffffffffff166118f783610930565b73ffffffffffffffffffffffffffffffffffffffff167f8c5be1e5ebec7d5bd14f71427d1e84f3dd0314c0f7b2291e5b200ac8c7c3b92560405160405180910390a45050565b600061194882611810565b611987576040517f08c379a000000000000000000000000000000000000000000000000000000000815260040161197e9061421a565b60405180910390fd5b600061199283610930565b90508073ffffffffffffffffffffffffffffffffffffffff168473ffffffffffffffffffffffffffffffffffffffff161480611a0157508373ffffffffffffffffffffffffffffffffffffffff166119e9846105a5565b73ffffffffffffffffffffffffffffffffffffffff16145b80611a125750611a1181856114f4565b5b91505092915050565b8273ffffffffffffffffffffffffffffffffffffffff16611a3b82610930565b73ffffffffffffffffffffffffffffffffffffffff1614611a91576040517f08c379a0000000000000000000000000000000000000000000000000000000008152600401611a88906142ac565b60405180910390fd5b600073ffffffffffffffffffffffffffffffffffffffff168273ffffffffffffffffffffffffffffffffffffffff1603611b00576040517f08c379a0000000000000000000000000000000000000000000000000000000008152600401611af79061433e565b60405180910390fd5b611b0b838383612364565b611b16600082611884565b6001600360008573ffffffffffffffffffffffffffffffffffffffff1673ffffffffffffffffffffffffffffffffffffffff1681526020019081526020016000206000828254611b66919061438d565b925050819055506001600360008473ffffffffffffffffffffffffffffffffffffffff1673ffffffffffffffffffffffffffffffffffffffff1681526020019081526020016000206000828254611bbd91906143c1565b92505081905550816002600083815260200190815260200160002060006101000a81548173ffffffffffffffffffffffffffffffffffffffff021916908373ffffffffffffffffffffffffffffffffffffffff160217905550808273ffffffffffffffffffffffffffffffffffffffff168473ffffffffffffffffffffffffffffffffffffffff167fddf252ad1be2c89b69c2b068fc378daa952ba7f163c4a11628f55a4df523b3ef60405160405180910390a4611c7c838383612476565b505050565b6000600a60009054906101000a900473ffffffffffffffffffffffffffffffffffffffff16905081600a60006101000a81548173ffffffffffffffffffffffffffffffffffffffff021916908373ffffffffffffffffffffffffffffffffffffffff1602179055508173ffffffffffffffffffffffffffffffffffffffff168173ffffffffffffffffffffffffffffffffffffffff167f8be0079c531659141344cd1fd0a4f28419497f9722a3daafe3b4186f6b6457e060405160405180910390a35050565b8173ffffffffffffffffffffffffffffffffffffffff168373ffffffffffffffffffffffffffffffffffffffff1603611db5576040517f08c379a0000000000000000000000000000000000000000000000000000000008152600401611dac90614463565b60405180910390fd5b80600560008573ffffffffffffffffffffffffffffffffffffffff1673ffffffffffffffffffffffffffffffffffffffff16815260200190815260200160002060008473ffffffffffffffffffffffffffffffffffffffff1673ffffffffffffffffffffffffffffffffffffffff16815260200190815260200160002060006101000a81548160ff0219169083151502179055508173ffffffffffffffffffffffffffffffffffffffff168373ffffffffffffffffffffffffffffffffffffffff167f17307eab39ab6107e8899845ad3d59bd9653f200f220920489ca2b5937696c3183604051611ea69190612c18565b60405180910390a3505050565b600081600001549050919050565b611edb82826040518060200160405280600081525061247b565b5050565b611f79838383604051602401611ef793929190614483565b6040516020818303038152906040527f07c81217000000000000000000000000000000000000000000000000000000007bffffffffffffffffffffffffffffffffffffffffffffffffffffffff19166020820180517bffffffffffffffffffffffffffffffffffffffffffffffffffffffff83818316178352505050506122d1565b505050565b611f89848484611a1b565b611f95848484846124d6565b611fd4576040517f08c379a0000000000000000000000000000000000000000000000000000000008152600401611fcb90614533565b60405180910390fd5b50505050565b606060008203612021576040518060400160405280600181526020017f30000000000000000000000000000000000000000000000000000000000000008152509050612135565b600082905060005b6000821461205357808061203c90614553565b915050600a8261204c91906145ca565b9150612029565b60008167ffffffffffffffff81111561206f5761206e612fc7565b5b6040519080825280601f01601f1916602001820160405280156120a15781602001600182028036833780820191505090505b5090505b6000851461212e576001826120ba919061438d565b9150600a856120c991906145fb565b60306120d591906143c1565b60f81b8183815181106120eb576120ea613649565b5b60200101907effffffffffffffffffffffffffffffffffffffffffffffffffffffffffffff1916908160001a905350600a8561212791906145ca565b94506120a5565b8093505050505b919050565b60606000825190506000810361216257604051806020016040528060008152509150506122cc565b6000600360028361217391906143c1565b61217d91906145ca565b6004612189919061462c565b9050600060208261219a91906143c1565b67ffffffffffffffff8111156121b3576121b2612fc7565b5b6040519080825280601f01601f1916602001820160405280156121e55781602001600182028036833780820191505090505b5090506000604051806060016040528060408152602001614890604091399050600181016020830160005b868110156122895760038101905062ffffff818a015116603f8160121c168401518060081b905060ff603f83600c1c1686015116810190508060081b905060ff603f8360061c1686015116810190508060081b905060ff603f831686015116810190508060e01b90508084526004840193505050612210565b5060038606600181146122a357600281146122b3576122be565b613d3d60f01b60028303526122be565b603d60f81b60018303525b508484525050819450505050505b919050565b60008151905060006a636f6e736f6c652e6c6f679050602083016000808483855afa5050505050565b60007f01ffc9a7000000000000000000000000000000000000000000000000000000007bffffffffffffffffffffffffffffffffffffffffffffffffffffffff1916827bffffffffffffffffffffffffffffffffffffffffffffffffffffffff1916149050919050565b61236f83838361265d565b600073ffffffffffffffffffffffffffffffffffffffff168373ffffffffffffffffffffffffffffffffffffffff16036123b1576123ac81612662565b6123f0565b8173ffffffffffffffffffffffffffffffffffffffff168373ffffffffffffffffffffffffffffffffffffffff16146123ef576123ee83826126ab565b5b5b600073ffffffffffffffffffffffffffffffffffffffff168273ffffffffffffffffffffffffffffffffffffffff16036124325761242d81612818565b612471565b8273ffffffffffffffffffffffffffffffffffffffff168273ffffffffffffffffffffffffffffffffffffffff16146124705761246f82826128e9565b5b5b505050565b505050565b6124858383612968565b61249260008484846124d6565b6124d1576040517f08c379a00000000000000000000000000000000000000000000000000000000081526004016124c890614533565b60405180910390fd5b505050565b60006124f78473ffffffffffffffffffffffffffffffffffffffff16612b41565b15612650578373ffffffffffffffffffffffffffffffffffffffff1663150b7a0261252061187c565b8786866040518563ffffffff1660e01b815260040161254294939291906146d0565b6020604051808303816000875af192505050801561257e57506040513d601f19601f8201168201806040525081019061257b9190614731565b60015b612600573d80600081146125ae576040519150601f19603f3d011682016040523d82523d6000602084013e6125b3565b606091505b5060008151036125f8576040517f08c379a00000000000000000000000000000000000000000000000000000000081526004016125ef90614533565b60405180910390fd5b805181602001fd5b63150b7a0260e01b7bffffffffffffffffffffffffffffffffffffffffffffffffffffffff1916817bffffffffffffffffffffffffffffffffffffffffffffffffffffffff191614915050612655565b600190505b949350505050565b505050565b6008805490506009600083815260200190815260200160002081905550600881908060018154018082558091505060019003906000526020600020016000909190919091505550565b600060016126b8846109e1565b6126c2919061438d565b90506000600760008481526020019081526020016000205490508181146127a7576000600660008673ffffffffffffffffffffffffffffffffffffffff1673ffffffffffffffffffffffffffffffffffffffff168152602001908152602001600020600084815260200190815260200160002054905080600660008773ffffffffffffffffffffffffffffffffffffffff1673ffffffffffffffffffffffffffffffffffffffff168152602001908152602001600020600084815260200190815260200160002081905550816007600083815260200190815260200160002081905550505b6007600084815260200190815260200160002060009055600660008573ffffffffffffffffffffffffffffffffffffffff1673ffffffffffffffffffffffffffffffffffffffff16815260200190815260200160002060008381526020019081526020016000206000905550505050565b6000600160088054905061282c919061438d565b905060006009600084815260200190815260200160002054905060006008838154811061285c5761285b613649565b5b90600052602060002001549050806008838154811061287e5761287d613649565b5b9060005260206000200181905550816009600083815260200190815260200160002081905550600960008581526020019081526020016000206000905560088054806128cd576128cc61475e565b5b6001900381819060005260206000200160009055905550505050565b60006128f4836109e1565b905081600660008573ffffffffffffffffffffffffffffffffffffffff1673ffffffffffffffffffffffffffffffffffffffff168152602001908152602001600020600083815260200190815260200160002081905550806007600084815260200190815260200160002081905550505050565b600073ffffffffffffffffffffffffffffffffffffffff168273ffffffffffffffffffffffffffffffffffffffff16036129d7576040517f08c379a00000000000000000000000000000000000000000000000000000000081526004016129ce906147d9565b60405180910390fd5b6129e081611810565b15612a20576040517f08c379a0000000000000000000000000000000000000000000000000000000008152600401612a1790614845565b60405180910390fd5b612a2c60008383612364565b6001600360008473ffffffffffffffffffffffffffffffffffffffff1673ffffffffffffffffffffffffffffffffffffffff1681526020019081526020016000206000828254612a7c91906143c1565b92505081905550816002600083815260200190815260200160002060006101000a81548173ffffffffffffffffffffffffffffffffffffffff021916908373ffffffffffffffffffffffffffffffffffffffff160217905550808273ffffffffffffffffffffffffffffffffffffffff16600073ffffffffffffffffffffffffffffffffffffffff167fddf252ad1be2c89b69c2b068fc378daa952ba7f163c4a11628f55a4df523b3ef60405160405180910390a4612b3d60008383612476565b5050565b6000808273ffffffffffffffffffffffffffffffffffffffff163b119050919050565b6000604051905090565b600080fd5b600080fd5b60007fffffffff0000000000000000000000000000000000000000000000000000000082169050919050565b612bad81612b78565b8114612bb857600080fd5b50565b600081359050612bca81612ba4565b92915050565b600060208284031215612be657612be5612b6e565b5b6000612bf484828501612bbb565b91505092915050565b60008115159050919050565b612c1281612bfd565b82525050565b6000602082019050612c2d6000830184612c09565b92915050565b600081519050919050565b600082825260208201905092915050565b60005b83811015612c6d578082015181840152602081019050612c52565b83811115612c7c576000848401525b50505050565b6000601f19601f8301169050919050565b6000612c9e82612c33565b612ca88185612c3e565b9350612cb8818560208601612c4f565b612cc181612c82565b840191505092915050565b60006020820190508181036000830152612ce68184612c93565b905092915050565b6000819050919050565b612d0181612cee565b8114612d0c57600080fd5b50565b600081359050612d1e81612cf8565b92915050565b600060208284031215612d3a57612d39612b6e565b5b6000612d4884828501612d0f565b91505092915050565b600073ffffffffffffffffffffffffffffffffffffffff82169050919050565b6000612d7c82612d51565b9050919050565b612d8c81612d71565b82525050565b6000602082019050612da76000830184612d83565b92915050565b612db681612d71565b8114612dc157600080fd5b50565b600081359050612dd381612dad565b92915050565b60008060408385031215612df057612def612b6e565b5b6000612dfe85828601612dc4565b9250506020612e0f85828601612d0f565b9150509250929050565b612e2281612cee565b82525050565b6000602082019050612e3d6000830184612e19565b92915050565b600080600060608486031215612e5c57612e5b612b6e565b5b6000612e6a86828701612dc4565b9350506020612e7b86828701612dc4565b9250506040612e8c86828701612d0f565b9150509250925092565b600060208284031215612eac57612eab612b6e565b5b6000612eba84828501612dc4565b91505092915050565b612ecc81612bfd565b8114612ed757600080fd5b50565b600081359050612ee981612ec3565b92915050565b60008060408385031215612f0657612f05612b6e565b5b6000612f1485828601612dc4565b9250506020612f2585828601612eda565b9150509250929050565b600080fd5b600060808284031215612f4a57612f49612f2f565b5b81905092915050565b6000806000806102008587031215612f6e57612f6d612b6e565b5b6000612f7c87828801612f34565b9450506080612f8d87828801612f34565b935050610100612f9f87828801612f34565b925050610180612fb187828801612f34565b91505092959194509250565b600080fd5b600080fd5b7f4e487b7100000000000000000000000000000000000000000000000000000000600052604160045260246000fd5b612fff82612c82565b810181811067ffffffffffffffff8211171561301e5761301d612fc7565b5b80604052505050565b6000613031612b64565b905061303d8282612ff6565b919050565b600067ffffffffffffffff82111561305d5761305c612fc7565b5b61306682612c82565b9050602081019050919050565b82818337600083830152505050565b600061309561309084613042565b613027565b9050828152602081018484840111156130b1576130b0612fc2565b5b6130bc848285613073565b509392505050565b600082601f8301126130d9576130d8612fbd565b5b81356130e9848260208601613082565b91505092915050565b6000806000806080858703121561310c5761310b612b6e565b5b600061311a87828801612dc4565b945050602061312b87828801612dc4565b935050604061313c87828801612d0f565b925050606085013567ffffffffffffffff81111561315d5761315c612b73565b5b613169878288016130c4565b91505092959194509250565b61317e81612cee565b82525050565b600060ff82169050919050565b61319a81613184565b82525050565b6080820160008201516131b66000850182613175565b5060208201516131c96020850182613175565b5060408201516131dc6040850182613191565b5060608201516131ef6060850182613191565b50505050565b60006102008201905061320b60008301876131a0565b61321860808301866131a0565b6132266101008301856131a0565b6132346101808301846131a0565b95945050505050565b6000806040838503121561325457613253612b6e565b5b600061326285828601612dc4565b925050602061327385828601612dc4565b9150509250929050565b7f4e487b7100000000000000000000000000000000000000000000000000000000600052602260045260246000fd5b600060028204905060018216806132c457607f821691505b6020821081036132d7576132d661327d565b5b50919050565b7f4552433732313a20617070726f76656420717565727920666f72206e6f6e657860008201527f697374656e7420746f6b656e0000000000000000000000000000000000000000602082015250565b6000613339602c83612c3e565b9150613344826132dd565b604082019050919050565b600060208201905081810360008301526133688161332c565b9050919050565b7f4552433732313a20617070726f76616c20746f2063757272656e74206f776e6560008201527f7200000000000000000000000000000000000000000000000000000000000000602082015250565b60006133cb602183612c3e565b91506133d68261336f565b604082019050919050565b600060208201905081810360008301526133fa816133be565b9050919050565b7f4552433732313a20617070726f76652063616c6c6572206973206e6f74206f7760008201527f6e6572206e6f7220617070726f76656420666f7220616c6c0000000000000000602082015250565b600061345d603883612c3e565b915061346882613401565b604082019050919050565b6000602082019050818103600083015261348c81613450565b9050919050565b7f4552433732313a207472616e736665722063616c6c6572206973206e6f74206f60008201527f776e6572206e6f7220617070726f766564000000000000000000000000000000602082015250565b60006134ef603183612c3e565b91506134fa82613493565b604082019050919050565b6000602082019050818103600083015261351e816134e2565b9050919050565b7f455243373231456e756d657261626c653a206f776e657220696e646578206f7560008201527f74206f6620626f756e6473000000000000000000000000000000000000000000602082015250565b6000613581602b83612c3e565b915061358c82613525565b604082019050919050565b600060208201905081810360008301526135b081613574565b9050919050565b7f455243373231456e756d657261626c653a20676c6f62616c20696e646578206f60008201527f7574206f6620626f756e64730000000000000000000000000000000000000000602082015250565b6000613613602c83612c3e565b915061361e826135b7565b604082019050919050565b6000602082019050818103600083015261364281613606565b9050919050565b7f4e487b7100000000000000000000000000000000000000000000000000000000600052603260045260246000fd5b7f4552433732313a206f776e657220717565727920666f72206e6f6e657869737460008201527f656e7420746f6b656e0000000000000000000000000000000000000000000000602082015250565b60006136d4602983612c3e565b91506136df82613678565b604082019050919050565b60006020820190508181036000830152613703816136c7565b9050919050565b7f4552433732313a2062616c616e636520717565727920666f7220746865207a6560008201527f726f206164647265737300000000000000000000000000000000000000000000602082015250565b6000613766602a83612c3e565b91506137718261370a565b604082019050919050565b6000602082019050818103600083015261379581613759565b9050919050565b7f4f776e61626c653a2063616c6c6572206973206e6f7420746865206f776e6572600082015250565b60006137d2602083612c3e565b91506137dd8261379c565b602082019050919050565b60006020820190508181036000830152613801816137c5565b9050919050565b7f596f752063616e206f6e6c792068617665206f6e65204e465421000000000000600082015250565b600061383e601a83612c3e565b915061384982613808565b602082019050919050565b6000602082019050818103600083015261386d81613831565b9050919050565b600080fd5b61388281613184565b811461388d57600080fd5b50565b60008135905061389f81613879565b92915050565b6000608082840312156138bb576138ba613874565b5b6138c56080613027565b905060006138d584828501612d0f565b60008301525060206138e984828501612d0f565b60208301525060406138fd84828501613890565b604083015250606061391184828501613890565b60608301525092915050565b60006080828403121561393357613932612b6e565b5b6000613941848285016138a5565b91505092915050565b600060408201905061395f6000830185612d83565b61396c6020830184612e19565b9392505050565b600081905092915050565b7f2267656f6d65747279223a207b2274797065223a2022506f6c79676f6e222c2060008201527f22636f6f7264696e61746573223a205b5b5b0000000000000000000000000000602082015250565b60006139da603283613973565b91506139e58261397e565b603282019050919050565b60006139fb82612c33565b613a058185613973565b9350613a15818560208601612c4f565b80840191505092915050565b7f2c00000000000000000000000000000000000000000000000000000000000000600082015250565b6000613a57600183613973565b9150613a6282613a21565b600182019050919050565b7f5d2c205b00000000000000000000000000000000000000000000000000000000600082015250565b6000613aa3600483613973565b9150613aae82613a6d565b600482019050919050565b7f5d5d5d7d7d5d0000000000000000000000000000000000000000000000000000600082015250565b6000613aef600683613973565b9150613afa82613ab9565b600682019050919050565b6000613b10826139cd565b9150613b1c828d6139f0565b9150613b2782613a4a565b9150613b33828c6139f0565b9150613b3e82613a96565b9150613b4a828b6139f0565b9150613b5582613a4a565b9150613b61828a6139f0565b9150613b6c82613a96565b9150613b7882896139f0565b9150613b8382613a4a565b9150613b8f82886139f0565b9150613b9a82613a96565b9150613ba682876139f0565b9150613bb182613a4a565b9150613bbd82866139f0565b9150613bc882613a96565b9150613bd482856139f0565b9150613bdf82613a4a565b9150613beb82846139f0565b9150613bf682613ae2565b91508190509b9a5050505050505050505050565b7f22697357657374223a205b000000000000000000000000000000000000000000600082015250565b6000613c40600b83613973565b9150613c4b82613c0a565b600b82019050919050565b7f5d2c000000000000000000000000000000000000000000000000000000000000600082015250565b6000613c8c600283613973565b9150613c9782613c56565b600282019050919050565b7f226973536f757468223a205b0000000000000000000000000000000000000000600082015250565b6000613cd8600c83613973565b9150613ce382613ca2565b600c82019050919050565b7f5d00000000000000000000000000000000000000000000000000000000000000600082015250565b6000613d24600183613973565b9150613d2f82613cee565b600182019050919050565b6000613d4582613c33565b9150613d51828d6139f0565b9150613d5c82613a4a565b9150613d68828c6139f0565b9150613d7382613a4a565b9150613d7f828b6139f0565b9150613d8a82613a4a565b9150613d96828a6139f0565b9150613da182613a4a565b9150613dad82896139f0565b9150613db882613c7f565b9150613dc382613ccb565b9150613dcf82886139f0565b9150613dda82613a4a565b9150613de682876139f0565b9150613df182613a4a565b9150613dfd82866139f0565b9150613e0882613a4a565b9150613e1482856139f0565b9150613e1f82613a4a565b9150613e2b82846139f0565b9150613e3682613d17565b91508190509b9a5050505050505050505050565b7f7b2274797065223a202246656174757265436f6c6c656374696f6e222c20226660008201527f65617475726573223a205b7b2274797065223a202246656174757265222c202260208201527f70726f70657274696573223a207b20226e616d65223a20224d6170204e46542060408201527f2300000000000000000000000000000000000000000000000000000000000000606082015250565b6000613ef2606183613973565b9150613efd82613e4a565b606182019050919050565b7f222c20226964223a200000000000000000000000000000000000000000000000600082015250565b6000613f3e600983613973565b9150613f4982613f08565b600982019050919050565b7f7d2c000000000000000000000000000000000000000000000000000000000000600082015250565b6000613f8a600283613973565b9150613f9582613f54565b600282019050919050565b600081519050919050565b600081905092915050565b6000613fc182613fa0565b613fcb8185613fab565b9350613fdb818560208601612c4f565b80840191505092915050565b7f7d00000000000000000000000000000000000000000000000000000000000000600082015250565b600061401d600183613973565b915061402882613fe7565b600182019050919050565b600061403e82613ee5565b915061404a82876139f0565b915061405582613f31565b915061406182866139f0565b915061406c82613f7d565b91506140788285613fb6565b915061408382613a4a565b915061408f8284613fb6565b915061409a82614010565b915081905095945050505050565b7f646174613a6170706c69636174696f6e2f6a736f6e3b6261736536342c000000600082015250565b60006140de601d83613973565b91506140e9826140a8565b601d82019050919050565b60006140ff826140d1565b915061410b82846139f0565b915081905092915050565b7f4f776e61626c653a206e6577206f776e657220697320746865207a65726f206160008201527f6464726573730000000000000000000000000000000000000000000000000000602082015250565b6000614172602683612c3e565b915061417d82614116565b604082019050919050565b600060208201905081810360008301526141a181614165565b9050919050565b7f4552433732313a206f70657261746f7220717565727920666f72206e6f6e657860008201527f697374656e7420746f6b656e0000000000000000000000000000000000000000602082015250565b6000614204602c83612c3e565b915061420f826141a8565b604082019050919050565b60006020820190508181036000830152614233816141f7565b9050919050565b7f4552433732313a207472616e736665722066726f6d20696e636f72726563742060008201527f6f776e6572000000000000000000000000000000000000000000000000000000602082015250565b6000614296602583612c3e565b91506142a18261423a565b604082019050919050565b600060208201905081810360008301526142c581614289565b9050919050565b7f4552433732313a207472616e7366657220746f20746865207a65726f2061646460008201527f7265737300000000000000000000000000000000000000000000000000000000602082015250565b6000614328602483612c3e565b9150614333826142cc565b604082019050919050565b600060208201905081810360008301526143578161431b565b9050919050565b7f4e487b7100000000000000000000000000000000000000000000000000000000600052601160045260246000fd5b600061439882612cee565b91506143a383612cee565b9250828210156143b6576143b561435e565b5b828203905092915050565b60006143cc82612cee565b91506143d783612cee565b9250827fffffffffffffffffffffffffffffffffffffffffffffffffffffffffffffffff0382111561440c5761440b61435e565b5b828201905092915050565b7f4552433732313a20617070726f766520746f2063616c6c657200000000000000600082015250565b600061444d601983612c3e565b915061445882614417565b602082019050919050565b6000602082019050818103600083015261447c81614440565b9050919050565b6000606082019050818103600083015261449d8186612c93565b90506144ac6020830185612d83565b6144b96040830184612e19565b949350505050565b7f4552433732313a207472616e7366657220746f206e6f6e20455243373231526560008201527f63656976657220696d706c656d656e7465720000000000000000000000000000602082015250565b600061451d603283612c3e565b9150614528826144c1565b604082019050919050565b6000602082019050818103600083015261454c81614510565b9050919050565b600061455e82612cee565b91507fffffffffffffffffffffffffffffffffffffffffffffffffffffffffffffffff82036145905761458f61435e565b5b600182019050919050565b7f4e487b7100000000000000000000000000000000000000000000000000000000600052601260045260246000fd5b60006145d582612cee565b91506145e083612cee565b9250826145f0576145ef61459b565b5b828204905092915050565b600061460682612cee565b915061461183612cee565b9250826146215761462061459b565b5b828206905092915050565b600061463782612cee565b915061464283612cee565b9250817fffffffffffffffffffffffffffffffffffffffffffffffffffffffffffffffff048311821515161561467b5761467a61435e565b5b828202905092915050565b600082825260208201905092915050565b60006146a282613fa0565b6146ac8185614686565b93506146bc818560208601612c4f565b6146c581612c82565b840191505092915050565b60006080820190506146e56000830187612d83565b6146f26020830186612d83565b6146ff6040830185612e19565b81810360608301526147118184614697565b905095945050505050565b60008151905061472b81612ba4565b92915050565b60006020828403121561474757614746612b6e565b5b60006147558482850161471c565b91505092915050565b7f4e487b7100000000000000000000000000000000000000000000000000000000600052603160045260246000fd5b7f4552433732313a206d696e7420746f20746865207a65726f2061646472657373600082015250565b60006147c3602083612c3e565b91506147ce8261478d565b602082019050919050565b600060208201905081810360008301526147f2816147b6565b9050919050565b7f4552433732313a20746f6b656e20616c7265616479206d696e74656400000000600082015250565b600061482f601c83612c3e565b915061483a826147f9565b602082019050919050565b6000602082019050818103600083015261485e81614822565b905091905056fe41206e6577204e465420686173206265656e206d696e74656420746f20257320776974682049442025734142434445464748494a4b4c4d4e4f505152535455565758595a6162636465666768696a6b6c6d6e6f707172737475767778797a303132333435363738392b2fa264697066735822122014a8c0181d69f415d97050a03c9ca4daf4fa208fac0e6be2e65cc3993d883d0064736f6c634300080d0033",
  "linkReferences": {},
  "deployedLinkReferences": {}
}