{
  "_format": "hh-sol-artifact-1",
  "contractName": "mapNFT",
  "sourceName": "contracts/mapNFT.sol",
  "abi": [
    {
      "inputs": [],
      "stateMutability": "nonpayable",
      "type": "constructor"
    },
    {
      "anonymous": false,
      "inputs": [
        {
          "indexed": true,
          "internalType": "address",
          "name": "owner",
          "type": "address"
        },
        {
          "indexed": true,
          "internalType": "address",
          "name": "approved",
          "type": "address"
        },
        {
          "indexed": true,
          "internalType": "uint256",
          "name": "tokenId",
          "type": "uint256"
        }
      ],
      "name": "Approval",
      "type": "event"
    },
    {
      "anonymous": false,
      "inputs": [
        {
          "indexed": true,
          "internalType": "address",
          "name": "owner",
          "type": "address"
        },
        {
          "indexed": true,
          "internalType": "address",
          "name": "operator",
          "type": "address"
        },
        {
          "indexed": false,
          "internalType": "bool",
          "name": "approved",
          "type": "bool"
        }
      ],
      "name": "ApprovalForAll",
      "type": "event"
    },
    {
      "anonymous": false,
      "inputs": [
        {
          "indexed": true,
          "internalType": "address",
          "name": "previousOwner",
          "type": "address"
        },
        {
          "indexed": true,
          "internalType": "address",
          "name": "newOwner",
          "type": "address"
        }
      ],
      "name": "OwnershipTransferred",
      "type": "event"
    },
    {
      "anonymous": false,
      "inputs": [
        {
          "indexed": true,
          "internalType": "address",
          "name": "from",
          "type": "address"
        },
        {
          "indexed": true,
          "internalType": "address",
          "name": "to",
          "type": "address"
        },
        {
          "indexed": true,
          "internalType": "uint256",
          "name": "tokenId",
          "type": "uint256"
        }
      ],
      "name": "Transfer",
      "type": "event"
    },
    {
      "anonymous": false,
      "inputs": [
        {
          "indexed": false,
          "internalType": "address",
          "name": "sender",
          "type": "address"
        },
        {
          "indexed": false,
          "internalType": "uint256",
          "name": "tokenId",
          "type": "uint256"
        }
      ],
      "name": "newNftMinted",
      "type": "event"
    },
    {
      "inputs": [
        {
          "internalType": "address",
          "name": "to",
          "type": "address"
        },
        {
          "internalType": "uint256",
          "name": "tokenId",
          "type": "uint256"
        }
      ],
      "name": "approve",
      "outputs": [],
      "stateMutability": "nonpayable",
      "type": "function"
    },
    {
      "inputs": [
        {
          "internalType": "address",
          "name": "owner",
          "type": "address"
        }
      ],
      "name": "balanceOf",
      "outputs": [
        {
          "internalType": "uint256",
          "name": "",
          "type": "uint256"
        }
      ],
      "stateMutability": "view",
      "type": "function"
    },
    {
      "inputs": [
        {
          "internalType": "uint256",
          "name": "tokenId",
          "type": "uint256"
        }
      ],
      "name": "getApproved",
      "outputs": [
        {
          "internalType": "address",
          "name": "",
          "type": "address"
        }
      ],
      "stateMutability": "view",
      "type": "function"
    },
    {
      "inputs": [],
      "name": "getUserNFT",
      "outputs": [
        {
          "internalType": "uint256",
          "name": "",
          "type": "uint256"
        }
      ],
      "stateMutability": "view",
      "type": "function"
    },
    {
      "inputs": [
        {
          "internalType": "address",
          "name": "owner",
          "type": "address"
        },
        {
          "internalType": "address",
          "name": "operator",
          "type": "address"
        }
      ],
      "name": "isApprovedForAll",
      "outputs": [
        {
          "internalType": "bool",
          "name": "",
          "type": "bool"
        }
      ],
      "stateMutability": "view",
      "type": "function"
    },
    {
      "inputs": [
        {
          "components": [
            {
              "internalType": "uint256",
              "name": "long",
              "type": "uint256"
            },
            {
              "internalType": "uint256",
              "name": "lat",
              "type": "uint256"
            },
            {
              "internalType": "uint8",
              "name": "isWest",
              "type": "uint8"
            },
            {
              "internalType": "uint8",
              "name": "isSouth",
              "type": "uint8"
            }
          ],
          "internalType": "struct mapNFT.Coordinate",
          "name": "a",
          "type": "tuple"
        },
        {
          "components": [
            {
              "internalType": "uint256",
              "name": "long",
              "type": "uint256"
            },
            {
              "internalType": "uint256",
              "name": "lat",
              "type": "uint256"
            },
            {
              "internalType": "uint8",
              "name": "isWest",
              "type": "uint8"
            },
            {
              "internalType": "uint8",
              "name": "isSouth",
              "type": "uint8"
            }
          ],
          "internalType": "struct mapNFT.Coordinate",
          "name": "b",
          "type": "tuple"
        },
        {
          "components": [
            {
              "internalType": "uint256",
              "name": "long",
              "type": "uint256"
            },
            {
              "internalType": "uint256",
              "name": "lat",
              "type": "uint256"
            },
            {
              "internalType": "uint8",
              "name": "isWest",
              "type": "uint8"
            },
            {
              "internalType": "uint8",
              "name": "isSouth",
              "type": "uint8"
            }
          ],
          "internalType": "struct mapNFT.Coordinate",
          "name": "c",
          "type": "tuple"
        },
        {
          "components": [
            {
              "internalType": "uint256",
              "name": "long",
              "type": "uint256"
            },
            {
              "internalType": "uint256",
              "name": "lat",
              "type": "uint256"
            },
            {
              "internalType": "uint8",
              "name": "isWest",
              "type": "uint8"
            },
            {
              "internalType": "uint8",
              "name": "isSouth",
              "type": "uint8"
            }
          ],
          "internalType": "struct mapNFT.Coordinate",
          "name": "d",
          "type": "tuple"
        }
      ],
      "name": "mintNFT",
      "outputs": [],
      "stateMutability": "nonpayable",
      "type": "function"
    },
    {
      "inputs": [],
      "name": "name",
      "outputs": [
        {
          "internalType": "string",
          "name": "",
          "type": "string"
        }
      ],
      "stateMutability": "view",
      "type": "function"
    },
    {
      "inputs": [
        {
          "internalType": "address",
          "name": "",
          "type": "address"
        }
      ],
      "name": "nftHolders",
      "outputs": [
        {
          "internalType": "uint256",
          "name": "",
          "type": "uint256"
        }
      ],
      "stateMutability": "view",
      "type": "function"
    },
    {
      "inputs": [
        {
          "internalType": "uint256",
          "name": "",
          "type": "uint256"
        }
      ],
      "name": "nftPolygon",
      "outputs": [
        {
          "components": [
            {
              "internalType": "uint256",
              "name": "long",
              "type": "uint256"
            },
            {
              "internalType": "uint256",
              "name": "lat",
              "type": "uint256"
            },
            {
              "internalType": "uint8",
              "name": "isWest",
              "type": "uint8"
            },
            {
              "internalType": "uint8",
              "name": "isSouth",
              "type": "uint8"
            }
          ],
          "internalType": "struct mapNFT.Coordinate",
          "name": "a",
          "type": "tuple"
        },
        {
          "components": [
            {
              "internalType": "uint256",
              "name": "long",
              "type": "uint256"
            },
            {
              "internalType": "uint256",
              "name": "lat",
              "type": "uint256"
            },
            {
              "internalType": "uint8",
              "name": "isWest",
              "type": "uint8"
            },
            {
              "internalType": "uint8",
              "name": "isSouth",
              "type": "uint8"
            }
          ],
          "internalType": "struct mapNFT.Coordinate",
          "name": "b",
          "type": "tuple"
        },
        {
          "components": [
            {
              "internalType": "uint256",
              "name": "long",
              "type": "uint256"
            },
            {
              "internalType": "uint256",
              "name": "lat",
              "type": "uint256"
            },
            {
              "internalType": "uint8",
              "name": "isWest",
              "type": "uint8"
            },
            {
              "internalType": "uint8",
              "name": "isSouth",
              "type": "uint8"
            }
          ],
          "internalType": "struct mapNFT.Coordinate",
          "name": "c",
          "type": "tuple"
        },
        {
          "components": [
            {
              "internalType": "uint256",
              "name": "long",
              "type": "uint256"
            },
            {
              "internalType": "uint256",
              "name": "lat",
              "type": "uint256"
            },
            {
              "internalType": "uint8",
              "name": "isWest",
              "type": "uint8"
            },
            {
              "internalType": "uint8",
              "name": "isSouth",
              "type": "uint8"
            }
          ],
          "internalType": "struct mapNFT.Coordinate",
          "name": "d",
          "type": "tuple"
        }
      ],
      "stateMutability": "view",
      "type": "function"
    },
    {
      "inputs": [],
      "name": "owner",
      "outputs": [
        {
          "internalType": "address",
          "name": "",
          "type": "address"
        }
      ],
      "stateMutability": "view",
      "type": "function"
    },
    {
      "inputs": [
        {
          "internalType": "uint256",
          "name": "tokenId",
          "type": "uint256"
        }
      ],
      "name": "ownerOf",
      "outputs": [
        {
          "internalType": "address",
          "name": "",
          "type": "address"
        }
      ],
      "stateMutability": "view",
      "type": "function"
    },
    {
      "inputs": [],
      "name": "renounceOwnership",
      "outputs": [],
      "stateMutability": "nonpayable",
      "type": "function"
    },
    {
      "inputs": [
        {
          "internalType": "address",
          "name": "from",
          "type": "address"
        },
        {
          "internalType": "address",
          "name": "to",
          "type": "address"
        },
        {
          "internalType": "uint256",
          "name": "tokenId",
          "type": "uint256"
        }
      ],
      "name": "safeTransferFrom",
      "outputs": [],
      "stateMutability": "nonpayable",
      "type": "function"
    },
    {
      "inputs": [
        {
          "internalType": "address",
          "name": "from",
          "type": "address"
        },
        {
          "internalType": "address",
          "name": "to",
          "type": "address"
        },
        {
          "internalType": "uint256",
          "name": "tokenId",
          "type": "uint256"
        },
        {
          "internalType": "bytes",
          "name": "_data",
          "type": "bytes"
        }
      ],
      "name": "safeTransferFrom",
      "outputs": [],
      "stateMutability": "nonpayable",
      "type": "function"
    },
    {
      "inputs": [
        {
          "internalType": "address",
          "name": "operator",
          "type": "address"
        },
        {
          "internalType": "bool",
          "name": "approved",
          "type": "bool"
        }
      ],
      "name": "setApprovalForAll",
      "outputs": [],
      "stateMutability": "nonpayable",
      "type": "function"
    },
    {
      "inputs": [
        {
          "internalType": "bytes4",
          "name": "interfaceId",
          "type": "bytes4"
        }
      ],
      "name": "supportsInterface",
      "outputs": [
        {
          "internalType": "bool",
          "name": "",
          "type": "bool"
        }
      ],
      "stateMutability": "view",
      "type": "function"
    },
    {
      "inputs": [],
      "name": "symbol",
      "outputs": [
        {
          "internalType": "string",
          "name": "",
          "type": "string"
        }
      ],
      "stateMutability": "view",
      "type": "function"
    },
    {
      "inputs": [
        {
          "internalType": "uint256",
          "name": "_tokenId",
          "type": "uint256"
        }
      ],
      "name": "tokenURI",
      "outputs": [
        {
          "internalType": "string",
          "name": "",
          "type": "string"
        }
      ],
      "stateMutability": "view",
      "type": "function"
    },
    {
      "inputs": [
        {
          "internalType": "address",
          "name": "from",
          "type": "address"
        },
        {
          "internalType": "address",
          "name": "to",
          "type": "address"
        },
        {
          "internalType": "uint256",
          "name": "tokenId",
          "type": "uint256"
        }
      ],
      "name": "transferFrom",
      "outputs": [],
      "stateMutability": "nonpayable",
      "type": "function"
    },
    {
      "inputs": [
        {
          "internalType": "address",
          "name": "newOwner",
          "type": "address"
        }
      ],
      "name": "transferOwnership",
      "outputs": [],
      "stateMutability": "nonpayable",
      "type": "function"
    }
  ],
  "bytecode": "0x60806040523480156200001157600080fd5b506040518060400160405280600681526020017f6d61704e465400000000000000000000000000000000000000000000000000008152506040518060400160405280600381526020017f4d41500000000000000000000000000000000000000000000000000000000000815250816000908051906020019062000096929190620002ea565b508060019080519060200190620000af929190620002ea565b505050620000d2620000c66200013a60201b60201c565b6200014260201b60201c565b6200011d6040518060400160405280601981526020017f4d6170204e465420636f6e7472616374206372656174656421000000000000008152506200020860201b620014da1760201c565b620001346007620002ab60201b620015731760201c565b620004c6565b600033905090565b6000600660009054906101000a900473ffffffffffffffffffffffffffffffffffffffff16905081600660006101000a81548173ffffffffffffffffffffffffffffffffffffffff021916908373ffffffffffffffffffffffffffffffffffffffff1602179055508173ffffffffffffffffffffffffffffffffffffffff168173ffffffffffffffffffffffffffffffffffffffff167f8be0079c531659141344cd1fd0a4f28419497f9722a3daafe3b4186f6b6457e060405160405180910390a35050565b620002a8816040516024016200021f91906200043e565b6040516020818303038152906040527f41304fac000000000000000000000000000000000000000000000000000000007bffffffffffffffffffffffffffffffffffffffffffffffffffffffff19166020820180517bffffffffffffffffffffffffffffffffffffffffffffffffffffffff8381831617835250505050620002c160201b60201c565b50565b6001816000016000828254019250508190555050565b60008151905060006a636f6e736f6c652e6c6f679050602083016000808483855afa5050505050565b828054620002f89062000491565b90600052602060002090601f0160209004810192826200031c576000855562000368565b82601f106200033757805160ff191683800117855562000368565b8280016001018555821562000368579182015b82811115620003675782518255916020019190600101906200034a565b5b5090506200037791906200037b565b5090565b5b80821115620003965760008160009055506001016200037c565b5090565b600081519050919050565b600082825260208201905092915050565b60005b83811015620003d6578082015181840152602081019050620003b9565b83811115620003e6576000848401525b50505050565b6000601f19601f8301169050919050565b60006200040a826200039a565b620004168185620003a5565b935062000428818560208601620003b6565b6200043381620003ec565b840191505092915050565b600060208201905081810360008301526200045a8184620003fd565b905092915050565b7f4e487b7100000000000000000000000000000000000000000000000000000000600052602260045260246000fd5b60006002820490506001821680620004aa57607f821691505b602082108103620004c057620004bf62000462565b5b50919050565b6140a780620004d66000396000f3fe608060405234801561001057600080fd5b506004361061012c5760003560e01c80637df124a1116100ad578063b88d4fde11610071578063b88d4fde1461032f578063c87b56dd1461034b578063d06a0e911461037b578063e985e9c5146103ae578063f2fde38b146103de5761012c565b80637df124a11461028b5780638da5cb5b146102bb57806395d89b41146102d9578063a22cb465146102f7578063a3b46b44146103135761012c565b806334238d93116100f457806334238d93146101e757806342842e0e146102055780636352211e1461022157806370a0823114610251578063715018a6146102815761012c565b806301ffc9a71461013157806306fdde0314610161578063081812fc1461017f578063095ea7b3146101af57806323b872dd146101cb575b600080fd5b61014b60048036038101906101469190612531565b6103fa565b6040516101589190612579565b60405180910390f35b6101696104dc565b604051610176919061262d565b60405180910390f35b61019960048036038101906101949190612685565b61056e565b6040516101a691906126f3565b60405180910390f35b6101c960048036038101906101c4919061273a565b6105f3565b005b6101e560048036038101906101e0919061277a565b61070a565b005b6101ef61076a565b6040516101fc91906127dc565b60405180910390f35b61021f600480360381019061021a919061277a565b6107b6565b005b61023b60048036038101906102369190612685565b6107d6565b60405161024891906126f3565b60405180910390f35b61026b600480360381019061026691906127f7565b610887565b60405161027891906127dc565b60405180910390f35b61028961093e565b005b6102a560048036038101906102a091906127f7565b6109c6565b6040516102b291906127dc565b60405180910390f35b6102c36109de565b6040516102d091906126f3565b60405180910390f35b6102e1610a08565b6040516102ee919061262d565b60405180910390f35b610311600480360381019061030c9190612850565b610a9a565b005b61032d600480360381019061032891906128b4565b610ab0565b005b61034960048036038101906103449190612a53565b610d74565b005b61036560048036038101906103609190612685565b610dd6565b604051610372919061262d565b60405180910390f35b61039560048036038101906103909190612685565b6111bf565b6040516103a59493929190612b56565b60405180910390f35b6103c860048036038101906103c39190612b9e565b61134f565b6040516103d59190612579565b60405180910390f35b6103f860048036038101906103f391906127f7565b6113e3565b005b60007f80ac58cd000000000000000000000000000000000000000000000000000000007bffffffffffffffffffffffffffffffffffffffffffffffffffffffff1916827bffffffffffffffffffffffffffffffffffffffffffffffffffffffff191614806104c557507f5b5e139f000000000000000000000000000000000000000000000000000000007bffffffffffffffffffffffffffffffffffffffffffffffffffffffff1916827bffffffffffffffffffffffffffffffffffffffffffffffffffffffff1916145b806104d557506104d482611589565b5b9050919050565b6060600080546104eb90612c0d565b80601f016020809104026020016040519081016040528092919081815260200182805461051790612c0d565b80156105645780601f1061053957610100808354040283529160200191610564565b820191906000526020600020905b81548152906001019060200180831161054757829003601f168201915b5050505050905090565b6000610579826115f3565b6105b8576040517f08c379a00000000000000000000000000000000000000000000000000000000081526004016105af90612cb0565b60405180910390fd5b6004600083815260200190815260200160002060009054906101000a900473ffffffffffffffffffffffffffffffffffffffff169050919050565b60006105fe826107d6565b90508073ffffffffffffffffffffffffffffffffffffffff168373ffffffffffffffffffffffffffffffffffffffff160361066e576040517f08c379a000000000000000000000000000000000000000000000000000000000815260040161066590612d42565b60405180910390fd5b8073ffffffffffffffffffffffffffffffffffffffff1661068d61165f565b73ffffffffffffffffffffffffffffffffffffffff1614806106bc57506106bb816106b661165f565b61134f565b5b6106fb576040517f08c379a00000000000000000000000000000000000000000000000000000000081526004016106f290612dd4565b60405180910390fd5b6107058383611667565b505050565b61071b61071561165f565b82611720565b61075a576040517f08c379a000000000000000000000000000000000000000000000000000000000815260040161075190612e66565b60405180910390fd5b6107658383836117fe565b505050565b600080600960003373ffffffffffffffffffffffffffffffffffffffff1673ffffffffffffffffffffffffffffffffffffffff1681526020019081526020016000205490508091505090565b6107d183838360405180602001604052806000815250610d74565b505050565b6000806002600084815260200190815260200160002060009054906101000a900473ffffffffffffffffffffffffffffffffffffffff169050600073ffffffffffffffffffffffffffffffffffffffff168173ffffffffffffffffffffffffffffffffffffffff160361087e576040517f08c379a000000000000000000000000000000000000000000000000000000000815260040161087590612ef8565b60405180910390fd5b80915050919050565b60008073ffffffffffffffffffffffffffffffffffffffff168273ffffffffffffffffffffffffffffffffffffffff16036108f7576040517f08c379a00000000000000000000000000000000000000000000000000000000081526004016108ee90612f8a565b60405180910390fd5b600360008373ffffffffffffffffffffffffffffffffffffffff1673ffffffffffffffffffffffffffffffffffffffff168152602001908152602001600020549050919050565b61094661165f565b73ffffffffffffffffffffffffffffffffffffffff166109646109de565b73ffffffffffffffffffffffffffffffffffffffff16146109ba576040517f08c379a00000000000000000000000000000000000000000000000000000000081526004016109b190612ff6565b60405180910390fd5b6109c46000611a64565b565b60096020528060005260406000206000915090505481565b6000600660009054906101000a900473ffffffffffffffffffffffffffffffffffffffff16905090565b606060018054610a1790612c0d565b80601f0160208091040260200160405190810160405280929190818152602001828054610a4390612c0d565b8015610a905780601f10610a6557610100808354040283529160200191610a90565b820191906000526020600020905b815481529060010190602001808311610a7357829003601f168201915b5050505050905090565b610aac610aa561165f565b8383611b2a565b5050565b6000610abc6007611c96565b9050610ac83382611ca4565b604051806080016040528086803603810190610ae491906130bf565b815260200185803603810190610afa91906130bf565b815260200184803603810190610b1091906130bf565b815260200183803603810190610b2691906130bf565b81525060086000838152602001908152602001600020600082015181600001600082015181600001556020820151816001015560408201518160020160006101000a81548160ff021916908360ff16021790555060608201518160020160016101000a81548160ff021916908360ff1602179055505050602082015181600301600082015181600001556020820151816001015560408201518160020160006101000a81548160ff021916908360ff16021790555060608201518160020160016101000a81548160ff021916908360ff1602179055505050604082015181600601600082015181600001556020820151816001015560408201518160020160006101000a81548160ff021916908360ff16021790555060608201518160020160016101000a81548160ff021916908360ff1602179055505050606082015181600901600082015181600001556020820151816001015560408201518160020160006101000a81548160ff021916908360ff16021790555060608201518160020160016101000a81548160ff021916908360ff1602179055505050905050610ce66040518060600160405280602a8152602001614008602a91393383611cc2565b80600960003373ffffffffffffffffffffffffffffffffffffffff1673ffffffffffffffffffffffffffffffffffffffff16815260200190815260200160002081905550610d346007611573565b7f235834212a6b87f1642d2129e022f30aee6f09dd44f80bca0f551dc93b281ac43382604051610d659291906130ec565b60405180910390a15050505050565b610d85610d7f61165f565b83611720565b610dc4576040517f08c379a0000000000000000000000000000000000000000000000000000000008152600401610dbb90612e66565b60405180910390fd5b610dd084848484611d61565b50505050565b60606000600860008481526020019081526020016000206040518060800160405290816000820160405180608001604052908160008201548152602001600182015481526020016002820160009054906101000a900460ff1660ff1660ff1681526020016002820160019054906101000a900460ff1660ff1660ff168152505081526020016003820160405180608001604052908160008201548152602001600182015481526020016002820160009054906101000a900460ff1660ff1660ff1681526020016002820160019054906101000a900460ff1660ff1660ff168152505081526020016006820160405180608001604052908160008201548152602001600182015481526020016002820160009054906101000a900460ff1660ff1660ff1681526020016002820160019054906101000a900460ff1660ff1660ff168152505081526020016009820160405180608001604052908160008201548152602001600182015481526020016002820160009054906101000a900460ff1660ff1660ff1681526020016002820160019054906101000a900460ff1660ff1660ff16815250508152505090506000610f95826000015160000151611dbd565b610fa6836000015160200151611dbd565b610fb7846020015160000151611dbd565b610fc8856020015160200151611dbd565b610fd9866040015160000151611dbd565b610fea876040015160200151611dbd565b610ffb886060015160000151611dbd565b61100c896060015160200151611dbd565b61101d8a6000015160000151611dbd565b61102e8b6000015160200151611dbd565b6040516020016110479a999897969594939291906132a7565b6040516020818303038152906040529050600061106e83600001516040015160ff16611dbd565b61108284602001516040015160ff16611dbd565b61109685604001516040015160ff16611dbd565b6110aa86606001516040015160ff16611dbd565b6110be87600001516040015160ff16611dbd565b6110d288600001516060015160ff16611dbd565b6110e689602001516060015160ff16611dbd565b6110fa8a604001516060015160ff16611dbd565b61110e8b606001516060015160ff16611dbd565b6111228c600001516060015160ff16611dbd565b60405160200161113b9a999897969594939291906134dc565b6040516020818303038152906040529050600061118c61115a87611dbd565b61116388611dbd565b858560405160200161117894939291906137d5565b604051602081830303815290604052611f1d565b90506000816040516020016111a19190613896565b60405160208183030381529060405290508095505050505050919050565b60086020528060005260406000206000915090508060000160405180608001604052908160008201548152602001600182015481526020016002820160009054906101000a900460ff1660ff1660ff1681526020016002820160019054906101000a900460ff1660ff1660ff1681525050908060030160405180608001604052908160008201548152602001600182015481526020016002820160009054906101000a900460ff1660ff1660ff1681526020016002820160019054906101000a900460ff1660ff1660ff1681525050908060060160405180608001604052908160008201548152602001600182015481526020016002820160009054906101000a900460ff1660ff1660ff1681526020016002820160019054906101000a900460ff1660ff1660ff1681525050908060090160405180608001604052908160008201548152602001600182015481526020016002820160009054906101000a900460ff1660ff1660ff1681526020016002820160019054906101000a900460ff1660ff1660ff1681525050905084565b6000600560008473ffffffffffffffffffffffffffffffffffffffff1673ffffffffffffffffffffffffffffffffffffffff16815260200190815260200160002060008373ffffffffffffffffffffffffffffffffffffffff1673ffffffffffffffffffffffffffffffffffffffff16815260200190815260200160002060009054906101000a900460ff16905092915050565b6113eb61165f565b73ffffffffffffffffffffffffffffffffffffffff166114096109de565b73ffffffffffffffffffffffffffffffffffffffff161461145f576040517f08c379a000000000000000000000000000000000000000000000000000000000815260040161145690612ff6565b60405180910390fd5b600073ffffffffffffffffffffffffffffffffffffffff168173ffffffffffffffffffffffffffffffffffffffff16036114ce576040517f08c379a00000000000000000000000000000000000000000000000000000000081526004016114c59061392a565b60405180910390fd5b6114d781611a64565b50565b611570816040516024016114ee919061262d565b6040516020818303038152906040527f41304fac000000000000000000000000000000000000000000000000000000007bffffffffffffffffffffffffffffffffffffffffffffffffffffffff19166020820180517bffffffffffffffffffffffffffffffffffffffffffffffffffffffff83818316178352505050506120b4565b50565b6001816000016000828254019250508190555050565b60007f01ffc9a7000000000000000000000000000000000000000000000000000000007bffffffffffffffffffffffffffffffffffffffffffffffffffffffff1916827bffffffffffffffffffffffffffffffffffffffffffffffffffffffff1916149050919050565b60008073ffffffffffffffffffffffffffffffffffffffff166002600084815260200190815260200160002060009054906101000a900473ffffffffffffffffffffffffffffffffffffffff1673ffffffffffffffffffffffffffffffffffffffff1614159050919050565b600033905090565b816004600083815260200190815260200160002060006101000a81548173ffffffffffffffffffffffffffffffffffffffff021916908373ffffffffffffffffffffffffffffffffffffffff160217905550808273ffffffffffffffffffffffffffffffffffffffff166116da836107d6565b73ffffffffffffffffffffffffffffffffffffffff167f8c5be1e5ebec7d5bd14f71427d1e84f3dd0314c0f7b2291e5b200ac8c7c3b92560405160405180910390a45050565b600061172b826115f3565b61176a576040517f08c379a0000000000000000000000000000000000000000000000000000000008152600401611761906139bc565b60405180910390fd5b6000611775836107d6565b90508073ffffffffffffffffffffffffffffffffffffffff168473ffffffffffffffffffffffffffffffffffffffff1614806117e457508373ffffffffffffffffffffffffffffffffffffffff166117cc8461056e565b73ffffffffffffffffffffffffffffffffffffffff16145b806117f557506117f4818561134f565b5b91505092915050565b8273ffffffffffffffffffffffffffffffffffffffff1661181e826107d6565b73ffffffffffffffffffffffffffffffffffffffff1614611874576040517f08c379a000000000000000000000000000000000000000000000000000000000815260040161186b90613a4e565b60405180910390fd5b600073ffffffffffffffffffffffffffffffffffffffff168273ffffffffffffffffffffffffffffffffffffffff16036118e3576040517f08c379a00000000000000000000000000000000000000000000000000000000081526004016118da90613ae0565b60405180910390fd5b6118ee8383836120dd565b6118f9600082611667565b6001600360008573ffffffffffffffffffffffffffffffffffffffff1673ffffffffffffffffffffffffffffffffffffffff16815260200190815260200160002060008282546119499190613b2f565b925050819055506001600360008473ffffffffffffffffffffffffffffffffffffffff1673ffffffffffffffffffffffffffffffffffffffff16815260200190815260200160002060008282546119a09190613b63565b92505081905550816002600083815260200190815260200160002060006101000a81548173ffffffffffffffffffffffffffffffffffffffff021916908373ffffffffffffffffffffffffffffffffffffffff160217905550808273ffffffffffffffffffffffffffffffffffffffff168473ffffffffffffffffffffffffffffffffffffffff167fddf252ad1be2c89b69c2b068fc378daa952ba7f163c4a11628f55a4df523b3ef60405160405180910390a4611a5f8383836120e2565b505050565b6000600660009054906101000a900473ffffffffffffffffffffffffffffffffffffffff16905081600660006101000a81548173ffffffffffffffffffffffffffffffffffffffff021916908373ffffffffffffffffffffffffffffffffffffffff1602179055508173ffffffffffffffffffffffffffffffffffffffff168173ffffffffffffffffffffffffffffffffffffffff167f8be0079c531659141344cd1fd0a4f28419497f9722a3daafe3b4186f6b6457e060405160405180910390a35050565b8173ffffffffffffffffffffffffffffffffffffffff168373ffffffffffffffffffffffffffffffffffffffff1603611b98576040517f08c379a0000000000000000000000000000000000000000000000000000000008152600401611b8f90613c05565b60405180910390fd5b80600560008573ffffffffffffffffffffffffffffffffffffffff1673ffffffffffffffffffffffffffffffffffffffff16815260200190815260200160002060008473ffffffffffffffffffffffffffffffffffffffff1673ffffffffffffffffffffffffffffffffffffffff16815260200190815260200160002060006101000a81548160ff0219169083151502179055508173ffffffffffffffffffffffffffffffffffffffff168373ffffffffffffffffffffffffffffffffffffffff167f17307eab39ab6107e8899845ad3d59bd9653f200f220920489ca2b5937696c3183604051611c899190612579565b60405180910390a3505050565b600081600001549050919050565b611cbe8282604051806020016040528060008152506120e7565b5050565b611d5c838383604051602401611cda93929190613c25565b6040516020818303038152906040527f07c81217000000000000000000000000000000000000000000000000000000007bffffffffffffffffffffffffffffffffffffffffffffffffffffffff19166020820180517bffffffffffffffffffffffffffffffffffffffffffffffffffffffff83818316178352505050506120b4565b505050565b611d6c8484846117fe565b611d7884848484612142565b611db7576040517f08c379a0000000000000000000000000000000000000000000000000000000008152600401611dae90613cd5565b60405180910390fd5b50505050565b606060008203611e04576040518060400160405280600181526020017f30000000000000000000000000000000000000000000000000000000000000008152509050611f18565b600082905060005b60008214611e36578080611e1f90613cf5565b915050600a82611e2f9190613d6c565b9150611e0c565b60008167ffffffffffffffff811115611e5257611e51612928565b5b6040519080825280601f01601f191660200182016040528015611e845781602001600182028036833780820191505090505b5090505b60008514611f1157600182611e9d9190613b2f565b9150600a85611eac9190613d9d565b6030611eb89190613b63565b60f81b818381518110611ece57611ecd613dce565b5b60200101907effffffffffffffffffffffffffffffffffffffffffffffffffffffffffffff1916908160001a905350600a85611f0a9190613d6c565b9450611e88565b8093505050505b919050565b606060008251905060008103611f4557604051806020016040528060008152509150506120af565b60006003600283611f569190613b63565b611f609190613d6c565b6004611f6c9190613dfd565b90506000602082611f7d9190613b63565b67ffffffffffffffff811115611f9657611f95612928565b5b6040519080825280601f01601f191660200182016040528015611fc85781602001600182028036833780820191505090505b5090506000604051806060016040528060408152602001614032604091399050600181016020830160005b8681101561206c5760038101905062ffffff818a015116603f8160121c168401518060081b905060ff603f83600c1c1686015116810190508060081b905060ff603f8360061c1686015116810190508060081b905060ff603f831686015116810190508060e01b90508084526004840193505050611ff3565b5060038606600181146120865760028114612096576120a1565b613d3d60f01b60028303526120a1565b603d60f81b60018303525b508484525050819450505050505b919050565b60008151905060006a636f6e736f6c652e6c6f679050602083016000808483855afa5050505050565b505050565b505050565b6120f183836122c9565b6120fe6000848484612142565b61213d576040517f08c379a000000000000000000000000000000000000000000000000000000000815260040161213490613cd5565b60405180910390fd5b505050565b60006121638473ffffffffffffffffffffffffffffffffffffffff166124a2565b156122bc578373ffffffffffffffffffffffffffffffffffffffff1663150b7a0261218c61165f565b8786866040518563ffffffff1660e01b81526004016121ae9493929190613ea1565b6020604051808303816000875af19250505080156121ea57506040513d601f19601f820116820180604052508101906121e79190613f02565b60015b61226c573d806000811461221a576040519150601f19603f3d011682016040523d82523d6000602084013e61221f565b606091505b506000815103612264576040517f08c379a000000000000000000000000000000000000000000000000000000000815260040161225b90613cd5565b60405180910390fd5b805181602001fd5b63150b7a0260e01b7bffffffffffffffffffffffffffffffffffffffffffffffffffffffff1916817bffffffffffffffffffffffffffffffffffffffffffffffffffffffff1916149150506122c1565b600190505b949350505050565b600073ffffffffffffffffffffffffffffffffffffffff168273ffffffffffffffffffffffffffffffffffffffff1603612338576040517f08c379a000000000000000000000000000000000000000000000000000000000815260040161232f90613f7b565b60405180910390fd5b612341816115f3565b15612381576040517f08c379a000000000000000000000000000000000000000000000000000000000815260040161237890613fe7565b60405180910390fd5b61238d600083836120dd565b6001600360008473ffffffffffffffffffffffffffffffffffffffff1673ffffffffffffffffffffffffffffffffffffffff16815260200190815260200160002060008282546123dd9190613b63565b92505081905550816002600083815260200190815260200160002060006101000a81548173ffffffffffffffffffffffffffffffffffffffff021916908373ffffffffffffffffffffffffffffffffffffffff160217905550808273ffffffffffffffffffffffffffffffffffffffff16600073ffffffffffffffffffffffffffffffffffffffff167fddf252ad1be2c89b69c2b068fc378daa952ba7f163c4a11628f55a4df523b3ef60405160405180910390a461249e600083836120e2565b5050565b6000808273ffffffffffffffffffffffffffffffffffffffff163b119050919050565b6000604051905090565b600080fd5b600080fd5b60007fffffffff0000000000000000000000000000000000000000000000000000000082169050919050565b61250e816124d9565b811461251957600080fd5b50565b60008135905061252b81612505565b92915050565b600060208284031215612547576125466124cf565b5b60006125558482850161251c565b91505092915050565b60008115159050919050565b6125738161255e565b82525050565b600060208201905061258e600083018461256a565b92915050565b600081519050919050565b600082825260208201905092915050565b60005b838110156125ce5780820151818401526020810190506125b3565b838111156125dd576000848401525b50505050565b6000601f19601f8301169050919050565b60006125ff82612594565b612609818561259f565b93506126198185602086016125b0565b612622816125e3565b840191505092915050565b6000602082019050818103600083015261264781846125f4565b905092915050565b6000819050919050565b6126628161264f565b811461266d57600080fd5b50565b60008135905061267f81612659565b92915050565b60006020828403121561269b5761269a6124cf565b5b60006126a984828501612670565b91505092915050565b600073ffffffffffffffffffffffffffffffffffffffff82169050919050565b60006126dd826126b2565b9050919050565b6126ed816126d2565b82525050565b600060208201905061270860008301846126e4565b92915050565b612717816126d2565b811461272257600080fd5b50565b6000813590506127348161270e565b92915050565b60008060408385031215612751576127506124cf565b5b600061275f85828601612725565b925050602061277085828601612670565b9150509250929050565b600080600060608486031215612793576127926124cf565b5b60006127a186828701612725565b93505060206127b286828701612725565b92505060406127c386828701612670565b9150509250925092565b6127d68161264f565b82525050565b60006020820190506127f160008301846127cd565b92915050565b60006020828403121561280d5761280c6124cf565b5b600061281b84828501612725565b91505092915050565b61282d8161255e565b811461283857600080fd5b50565b60008135905061284a81612824565b92915050565b60008060408385031215612867576128666124cf565b5b600061287585828601612725565b92505060206128868582860161283b565b9150509250929050565b600080fd5b6000608082840312156128ab576128aa612890565b5b81905092915050565b60008060008061020085870312156128cf576128ce6124cf565b5b60006128dd87828801612895565b94505060806128ee87828801612895565b93505061010061290087828801612895565b92505061018061291287828801612895565b91505092959194509250565b600080fd5b600080fd5b7f4e487b7100000000000000000000000000000000000000000000000000000000600052604160045260246000fd5b612960826125e3565b810181811067ffffffffffffffff8211171561297f5761297e612928565b5b80604052505050565b60006129926124c5565b905061299e8282612957565b919050565b600067ffffffffffffffff8211156129be576129bd612928565b5b6129c7826125e3565b9050602081019050919050565b82818337600083830152505050565b60006129f66129f1846129a3565b612988565b905082815260208101848484011115612a1257612a11612923565b5b612a1d8482856129d4565b509392505050565b600082601f830112612a3a57612a3961291e565b5b8135612a4a8482602086016129e3565b91505092915050565b60008060008060808587031215612a6d57612a6c6124cf565b5b6000612a7b87828801612725565b9450506020612a8c87828801612725565b9350506040612a9d87828801612670565b925050606085013567ffffffffffffffff811115612abe57612abd6124d4565b5b612aca87828801612a25565b91505092959194509250565b612adf8161264f565b82525050565b600060ff82169050919050565b612afb81612ae5565b82525050565b608082016000820151612b176000850182612ad6565b506020820151612b2a6020850182612ad6565b506040820151612b3d6040850182612af2565b506060820151612b506060850182612af2565b50505050565b600061020082019050612b6c6000830187612b01565b612b796080830186612b01565b612b87610100830185612b01565b612b95610180830184612b01565b95945050505050565b60008060408385031215612bb557612bb46124cf565b5b6000612bc385828601612725565b9250506020612bd485828601612725565b9150509250929050565b7f4e487b7100000000000000000000000000000000000000000000000000000000600052602260045260246000fd5b60006002820490506001821680612c2557607f821691505b602082108103612c3857612c37612bde565b5b50919050565b7f4552433732313a20617070726f76656420717565727920666f72206e6f6e657860008201527f697374656e7420746f6b656e0000000000000000000000000000000000000000602082015250565b6000612c9a602c8361259f565b9150612ca582612c3e565b604082019050919050565b60006020820190508181036000830152612cc981612c8d565b9050919050565b7f4552433732313a20617070726f76616c20746f2063757272656e74206f776e6560008201527f7200000000000000000000000000000000000000000000000000000000000000602082015250565b6000612d2c60218361259f565b9150612d3782612cd0565b604082019050919050565b60006020820190508181036000830152612d5b81612d1f565b9050919050565b7f4552433732313a20617070726f76652063616c6c6572206973206e6f74206f7760008201527f6e6572206e6f7220617070726f76656420666f7220616c6c0000000000000000602082015250565b6000612dbe60388361259f565b9150612dc982612d62565b604082019050919050565b60006020820190508181036000830152612ded81612db1565b9050919050565b7f4552433732313a207472616e736665722063616c6c6572206973206e6f74206f60008201527f776e6572206e6f7220617070726f766564000000000000000000000000000000602082015250565b6000612e5060318361259f565b9150612e5b82612df4565b604082019050919050565b60006020820190508181036000830152612e7f81612e43565b9050919050565b7f4552433732313a206f776e657220717565727920666f72206e6f6e657869737460008201527f656e7420746f6b656e0000000000000000000000000000000000000000000000602082015250565b6000612ee260298361259f565b9150612eed82612e86565b604082019050919050565b60006020820190508181036000830152612f1181612ed5565b9050919050565b7f4552433732313a2062616c616e636520717565727920666f7220746865207a6560008201527f726f206164647265737300000000000000000000000000000000000000000000602082015250565b6000612f74602a8361259f565b9150612f7f82612f18565b604082019050919050565b60006020820190508181036000830152612fa381612f67565b9050919050565b7f4f776e61626c653a2063616c6c6572206973206e6f7420746865206f776e6572600082015250565b6000612fe060208361259f565b9150612feb82612faa565b602082019050919050565b6000602082019050818103600083015261300f81612fd3565b9050919050565b600080fd5b61302481612ae5565b811461302f57600080fd5b50565b6000813590506130418161301b565b92915050565b60006080828403121561305d5761305c613016565b5b6130676080612988565b9050600061307784828501612670565b600083015250602061308b84828501612670565b602083015250604061309f84828501613032565b60408301525060606130b384828501613032565b60608301525092915050565b6000608082840312156130d5576130d46124cf565b5b60006130e384828501613047565b91505092915050565b600060408201905061310160008301856126e4565b61310e60208301846127cd565b9392505050565b600081905092915050565b7f2267656f6d65747279223a207b2274797065223a2022506f6c79676f6e222c2060008201527f22636f6f7264696e61746573223a205b5b5b0000000000000000000000000000602082015250565b600061317c603283613115565b915061318782613120565b603282019050919050565b600061319d82612594565b6131a78185613115565b93506131b78185602086016125b0565b80840191505092915050565b7f2c00000000000000000000000000000000000000000000000000000000000000600082015250565b60006131f9600183613115565b9150613204826131c3565b600182019050919050565b7f5d2c205b00000000000000000000000000000000000000000000000000000000600082015250565b6000613245600483613115565b91506132508261320f565b600482019050919050565b7f5d5d5d7d7d5d0000000000000000000000000000000000000000000000000000600082015250565b6000613291600683613115565b915061329c8261325b565b600682019050919050565b60006132b28261316f565b91506132be828d613192565b91506132c9826131ec565b91506132d5828c613192565b91506132e082613238565b91506132ec828b613192565b91506132f7826131ec565b9150613303828a613192565b915061330e82613238565b915061331a8289613192565b9150613325826131ec565b91506133318288613192565b915061333c82613238565b91506133488287613192565b9150613353826131ec565b915061335f8286613192565b915061336a82613238565b91506133768285613192565b9150613381826131ec565b915061338d8284613192565b915061339882613284565b91508190509b9a5050505050505050505050565b7f22697357657374223a205b000000000000000000000000000000000000000000600082015250565b60006133e2600b83613115565b91506133ed826133ac565b600b82019050919050565b7f5d2c000000000000000000000000000000000000000000000000000000000000600082015250565b600061342e600283613115565b9150613439826133f8565b600282019050919050565b7f226973536f757468223a205b0000000000000000000000000000000000000000600082015250565b600061347a600c83613115565b915061348582613444565b600c82019050919050565b7f5d00000000000000000000000000000000000000000000000000000000000000600082015250565b60006134c6600183613115565b91506134d182613490565b600182019050919050565b60006134e7826133d5565b91506134f3828d613192565b91506134fe826131ec565b915061350a828c613192565b9150613515826131ec565b9150613521828b613192565b915061352c826131ec565b9150613538828a613192565b9150613543826131ec565b915061354f8289613192565b915061355a82613421565b91506135658261346d565b91506135718288613192565b915061357c826131ec565b91506135888287613192565b9150613593826131ec565b915061359f8286613192565b91506135aa826131ec565b91506135b68285613192565b91506135c1826131ec565b91506135cd8284613192565b91506135d8826134b9565b91508190509b9a5050505050505050505050565b7f7b2274797065223a202246656174757265436f6c6c656374696f6e222c20226660008201527f65617475726573223a205b7b2274797065223a202246656174757265222c202260208201527f70726f70657274696573223a207b20226e616d65223a20224d6170204e46542060408201527f2300000000000000000000000000000000000000000000000000000000000000606082015250565b6000613694606183613115565b915061369f826135ec565b606182019050919050565b7f222c20226964223a200000000000000000000000000000000000000000000000600082015250565b60006136e0600983613115565b91506136eb826136aa565b600982019050919050565b7f7d2c000000000000000000000000000000000000000000000000000000000000600082015250565b600061372c600283613115565b9150613737826136f6565b600282019050919050565b600081519050919050565b600081905092915050565b600061376382613742565b61376d818561374d565b935061377d8185602086016125b0565b80840191505092915050565b7f7d00000000000000000000000000000000000000000000000000000000000000600082015250565b60006137bf600183613115565b91506137ca82613789565b600182019050919050565b60006137e082613687565b91506137ec8287613192565b91506137f7826136d3565b91506138038286613192565b915061380e8261371f565b915061381a8285613758565b9150613825826131ec565b91506138318284613758565b915061383c826137b2565b915081905095945050505050565b7f646174613a6170706c69636174696f6e2f6a736f6e3b6261736536342c000000600082015250565b6000613880601d83613115565b915061388b8261384a565b601d82019050919050565b60006138a182613873565b91506138ad8284613192565b915081905092915050565b7f4f776e61626c653a206e6577206f776e657220697320746865207a65726f206160008201527f6464726573730000000000000000000000000000000000000000000000000000602082015250565b600061391460268361259f565b915061391f826138b8565b604082019050919050565b6000602082019050818103600083015261394381613907565b9050919050565b7f4552433732313a206f70657261746f7220717565727920666f72206e6f6e657860008201527f697374656e7420746f6b656e0000000000000000000000000000000000000000602082015250565b60006139a6602c8361259f565b91506139b18261394a565b604082019050919050565b600060208201905081810360008301526139d581613999565b9050919050565b7f4552433732313a207472616e736665722066726f6d20696e636f72726563742060008201527f6f776e6572000000000000000000000000000000000000000000000000000000602082015250565b6000613a3860258361259f565b9150613a43826139dc565b604082019050919050565b60006020820190508181036000830152613a6781613a2b565b9050919050565b7f4552433732313a207472616e7366657220746f20746865207a65726f2061646460008201527f7265737300000000000000000000000000000000000000000000000000000000602082015250565b6000613aca60248361259f565b9150613ad582613a6e565b604082019050919050565b60006020820190508181036000830152613af981613abd565b9050919050565b7f4e487b7100000000000000000000000000000000000000000000000000000000600052601160045260246000fd5b6000613b3a8261264f565b9150613b458361264f565b925082821015613b5857613b57613b00565b5b828203905092915050565b6000613b6e8261264f565b9150613b798361264f565b9250827fffffffffffffffffffffffffffffffffffffffffffffffffffffffffffffffff03821115613bae57613bad613b00565b5b828201905092915050565b7f4552433732313a20617070726f766520746f2063616c6c657200000000000000600082015250565b6000613bef60198361259f565b9150613bfa82613bb9565b602082019050919050565b60006020820190508181036000830152613c1e81613be2565b9050919050565b60006060820190508181036000830152613c3f81866125f4565b9050613c4e60208301856126e4565b613c5b60408301846127cd565b949350505050565b7f4552433732313a207472616e7366657220746f206e6f6e20455243373231526560008201527f63656976657220696d706c656d656e7465720000000000000000000000000000602082015250565b6000613cbf60328361259f565b9150613cca82613c63565b604082019050919050565b60006020820190508181036000830152613cee81613cb2565b9050919050565b6000613d008261264f565b91507fffffffffffffffffffffffffffffffffffffffffffffffffffffffffffffffff8203613d3257613d31613b00565b5b600182019050919050565b7f4e487b7100000000000000000000000000000000000000000000000000000000600052601260045260246000fd5b6000613d778261264f565b9150613d828361264f565b925082613d9257613d91613d3d565b5b828204905092915050565b6000613da88261264f565b9150613db38361264f565b925082613dc357613dc2613d3d565b5b828206905092915050565b7f4e487b7100000000000000000000000000000000000000000000000000000000600052603260045260246000fd5b6000613e088261264f565b9150613e138361264f565b9250817fffffffffffffffffffffffffffffffffffffffffffffffffffffffffffffffff0483118215151615613e4c57613e4b613b00565b5b828202905092915050565b600082825260208201905092915050565b6000613e7382613742565b613e7d8185613e57565b9350613e8d8185602086016125b0565b613e96816125e3565b840191505092915050565b6000608082019050613eb660008301876126e4565b613ec360208301866126e4565b613ed060408301856127cd565b8181036060830152613ee28184613e68565b905095945050505050565b600081519050613efc81612505565b92915050565b600060208284031215613f1857613f176124cf565b5b6000613f2684828501613eed565b91505092915050565b7f4552433732313a206d696e7420746f20746865207a65726f2061646472657373600082015250565b6000613f6560208361259f565b9150613f7082613f2f565b602082019050919050565b60006020820190508181036000830152613f9481613f58565b9050919050565b7f4552433732313a20746f6b656e20616c7265616479206d696e74656400000000600082015250565b6000613fd1601c8361259f565b9150613fdc82613f9b565b602082019050919050565b6000602082019050818103600083015261400081613fc4565b905091905056fe41206e6577204e465420686173206265656e206d696e74656420746f20257320776974682049442025734142434445464748494a4b4c4d4e4f505152535455565758595a6162636465666768696a6b6c6d6e6f707172737475767778797a303132333435363738392b2fa2646970667358221220c276bc4d0f8acc0db6e9770573575d2ec3873ce9aff0efda49efe809aaf5571b64736f6c634300080d0033",
  "linkReferences": {},
  "deployedLinkReferences": {}
}