{
  "_format": "hh-sol-artifact-1",
  "contractName": "StateImages",
  "sourceName": "contracts/StateImages.sol",
  "abi": [
    {
      "inputs": [],
      "stateMutability": "nonpayable",
      "type": "constructor"
    },
    {
      "inputs": [],
      "name": "Error__ImageNotAdded",
      "type": "error"
    },
    {
      "anonymous": false,
      "inputs": [
        {
          "indexed": true,
          "internalType": "address",
          "name": "owner",
          "type": "address"
        },
        {
          "indexed": true,
          "internalType": "address",
          "name": "approved",
          "type": "address"
        },
        {
          "indexed": true,
          "internalType": "uint256",
          "name": "tokenId",
          "type": "uint256"
        }
      ],
      "name": "Approval",
      "type": "event"
    },
    {
      "anonymous": false,
      "inputs": [
        {
          "indexed": true,
          "internalType": "address",
          "name": "owner",
          "type": "address"
        },
        {
          "indexed": true,
          "internalType": "address",
          "name": "operator",
          "type": "address"
        },
        {
          "indexed": false,
          "internalType": "bool",
          "name": "approved",
          "type": "bool"
        }
      ],
      "name": "ApprovalForAll",
      "type": "event"
    },
    {
      "anonymous": false,
      "inputs": [
        {
          "indexed": true,
          "internalType": "address",
          "name": "previousOwner",
          "type": "address"
        },
        {
          "indexed": true,
          "internalType": "address",
          "name": "newOwner",
          "type": "address"
        }
      ],
      "name": "OwnershipTransferred",
      "type": "event"
    },
    {
      "anonymous": false,
      "inputs": [
        {
          "indexed": true,
          "internalType": "address",
          "name": "from",
          "type": "address"
        },
        {
          "indexed": true,
          "internalType": "address",
          "name": "to",
          "type": "address"
        },
        {
          "indexed": true,
          "internalType": "uint256",
          "name": "tokenId",
          "type": "uint256"
        }
      ],
      "name": "Transfer",
      "type": "event"
    },
    {
      "anonymous": false,
      "inputs": [
        {
          "indexed": true,
          "internalType": "uint256",
          "name": "stateNftId",
          "type": "uint256"
        }
      ],
      "name": "imageAdded",
      "type": "event"
    },
    {
      "inputs": [
        {
          "internalType": "uint256",
          "name": "stateNftId",
          "type": "uint256"
        },
        {
          "internalType": "string",
          "name": "imageURL",
          "type": "string"
        }
      ],
      "name": "addImage",
      "outputs": [
        {
          "internalType": "uint256",
          "name": "",
          "type": "uint256"
        }
      ],
      "stateMutability": "nonpayable",
      "type": "function"
    },
    {
      "inputs": [
        {
          "internalType": "address",
          "name": "to",
          "type": "address"
        },
        {
          "internalType": "uint256",
          "name": "tokenId",
          "type": "uint256"
        }
      ],
      "name": "approve",
      "outputs": [],
      "stateMutability": "nonpayable",
      "type": "function"
    },
    {
      "inputs": [
        {
          "internalType": "address",
          "name": "owner",
          "type": "address"
        }
      ],
      "name": "balanceOf",
      "outputs": [
        {
          "internalType": "uint256",
          "name": "",
          "type": "uint256"
        }
      ],
      "stateMutability": "view",
      "type": "function"
    },
    {
      "inputs": [
        {
          "internalType": "uint256",
          "name": "tokenId",
          "type": "uint256"
        }
      ],
      "name": "getApproved",
      "outputs": [
        {
          "internalType": "address",
          "name": "",
          "type": "address"
        }
      ],
      "stateMutability": "view",
      "type": "function"
    },
    {
      "inputs": [
        {
          "internalType": "uint256",
          "name": "stateNftId",
          "type": "uint256"
        }
      ],
      "name": "getStateNftToTokenURI",
      "outputs": [
        {
          "internalType": "string",
          "name": "",
          "type": "string"
        }
      ],
      "stateMutability": "view",
      "type": "function"
    },
    {
      "inputs": [
        {
          "internalType": "address",
          "name": "owner",
          "type": "address"
        },
        {
          "internalType": "address",
          "name": "operator",
          "type": "address"
        }
      ],
      "name": "isApprovedForAll",
      "outputs": [
        {
          "internalType": "bool",
          "name": "",
          "type": "bool"
        }
      ],
      "stateMutability": "view",
      "type": "function"
    },
    {
      "inputs": [],
      "name": "name",
      "outputs": [
        {
          "internalType": "string",
          "name": "",
          "type": "string"
        }
      ],
      "stateMutability": "view",
      "type": "function"
    },
    {
      "inputs": [],
      "name": "owner",
      "outputs": [
        {
          "internalType": "address",
          "name": "",
          "type": "address"
        }
      ],
      "stateMutability": "view",
      "type": "function"
    },
    {
      "inputs": [
        {
          "internalType": "uint256",
          "name": "tokenId",
          "type": "uint256"
        }
      ],
      "name": "ownerOf",
      "outputs": [
        {
          "internalType": "address",
          "name": "",
          "type": "address"
        }
      ],
      "stateMutability": "view",
      "type": "function"
    },
    {
      "inputs": [],
      "name": "renounceOwnership",
      "outputs": [],
      "stateMutability": "nonpayable",
      "type": "function"
    },
    {
      "inputs": [
        {
          "internalType": "address",
          "name": "from",
          "type": "address"
        },
        {
          "internalType": "address",
          "name": "to",
          "type": "address"
        },
        {
          "internalType": "uint256",
          "name": "tokenId",
          "type": "uint256"
        }
      ],
      "name": "safeTransferFrom",
      "outputs": [],
      "stateMutability": "nonpayable",
      "type": "function"
    },
    {
      "inputs": [
        {
          "internalType": "address",
          "name": "from",
          "type": "address"
        },
        {
          "internalType": "address",
          "name": "to",
          "type": "address"
        },
        {
          "internalType": "uint256",
          "name": "tokenId",
          "type": "uint256"
        },
        {
          "internalType": "bytes",
          "name": "_data",
          "type": "bytes"
        }
      ],
      "name": "safeTransferFrom",
      "outputs": [],
      "stateMutability": "nonpayable",
      "type": "function"
    },
    {
      "inputs": [
        {
          "internalType": "address",
          "name": "operator",
          "type": "address"
        },
        {
          "internalType": "bool",
          "name": "approved",
          "type": "bool"
        }
      ],
      "name": "setApprovalForAll",
      "outputs": [],
      "stateMutability": "nonpayable",
      "type": "function"
    },
    {
      "inputs": [
        {
          "internalType": "uint256",
          "name": "",
          "type": "uint256"
        }
      ],
      "name": "stateNftOwner",
      "outputs": [
        {
          "internalType": "address",
          "name": "",
          "type": "address"
        }
      ],
      "stateMutability": "view",
      "type": "function"
    },
    {
      "inputs": [
        {
          "internalType": "uint256",
          "name": "",
          "type": "uint256"
        }
      ],
      "name": "stateNftToImageId",
      "outputs": [
        {
          "internalType": "uint256",
          "name": "",
          "type": "uint256"
        }
      ],
      "stateMutability": "view",
      "type": "function"
    },
    {
      "inputs": [
        {
          "internalType": "bytes4",
          "name": "interfaceId",
          "type": "bytes4"
        }
      ],
      "name": "supportsInterface",
      "outputs": [
        {
          "internalType": "bool",
          "name": "",
          "type": "bool"
        }
      ],
      "stateMutability": "view",
      "type": "function"
    },
    {
      "inputs": [],
      "name": "symbol",
      "outputs": [
        {
          "internalType": "string",
          "name": "",
          "type": "string"
        }
      ],
      "stateMutability": "view",
      "type": "function"
    },
    {
      "inputs": [
        {
          "internalType": "uint256",
          "name": "tokenId",
          "type": "uint256"
        }
      ],
      "name": "tokenURI",
      "outputs": [
        {
          "internalType": "string",
          "name": "",
          "type": "string"
        }
      ],
      "stateMutability": "view",
      "type": "function"
    },
    {
      "inputs": [
        {
          "internalType": "address",
          "name": "from",
          "type": "address"
        },
        {
          "internalType": "address",
          "name": "to",
          "type": "address"
        },
        {
          "internalType": "uint256",
          "name": "tokenId",
          "type": "uint256"
        }
      ],
      "name": "transferFrom",
      "outputs": [],
      "stateMutability": "nonpayable",
      "type": "function"
    },
    {
      "inputs": [
        {
          "internalType": "address",
          "name": "newOwner",
          "type": "address"
        }
      ],
      "name": "transferOwnership",
      "outputs": [],
      "stateMutability": "nonpayable",
      "type": "function"
    }
  ],
  "bytecode": "0x60806040523480156200001157600080fd5b506040518060400160405280600a81526020017f5374617465496d616765000000000000000000000000000000000000000000008152506040518060400160405280600381526020017f53494d0000000000000000000000000000000000000000000000000000000000815250816000908051906020019062000096929190620001d3565b508060019080519060200190620000af929190620001d3565b505050620000d2620000c6620000ef60201b60201c565b620000f760201b60201c565b620000e96008620001bd60201b62000f3e1760201c565b620002e7565b600033905090565b6000600760009054906101000a900473ffffffffffffffffffffffffffffffffffffffff16905081600760006101000a81548173ffffffffffffffffffffffffffffffffffffffff021916908373ffffffffffffffffffffffffffffffffffffffff1602179055508173ffffffffffffffffffffffffffffffffffffffff168173ffffffffffffffffffffffffffffffffffffffff167f8be0079c531659141344cd1fd0a4f28419497f9722a3daafe3b4186f6b6457e060405160405180910390a35050565b6001816000016000828254019250508190555050565b828054620001e190620002b2565b90600052602060002090601f01602090048101928262000205576000855562000251565b82601f106200022057805160ff191683800117855562000251565b8280016001018555821562000251579182015b828111156200025057825182559160200191906001019062000233565b5b50905062000260919062000264565b5090565b5b808211156200027f57600081600090555060010162000265565b5090565b7f4e487b7100000000000000000000000000000000000000000000000000000000600052602260045260246000fd5b60006002820490506001821680620002cb57607f821691505b602082108103620002e157620002e062000283565b5b50919050565b61319380620002f76000396000f3fe608060405234801561001057600080fd5b506004361061012c5760003560e01c8063715018a6116100ad578063ab2258a211610071578063ab2258a214610355578063b88d4fde14610385578063c87b56dd146103a1578063e985e9c5146103d1578063f2fde38b146104015761012c565b8063715018a6146102c35780638109b332146102cd5780638da5cb5b146102fd57806395d89b411461031b578063a22cb465146103395761012c565b806342842e0e116100f457806342842e0e146101e7578063458fe534146102035780634fd9e3a3146102335780636352211e1461026357806370a08231146102935761012c565b806301ffc9a71461013157806306fdde0314610161578063081812fc1461017f578063095ea7b3146101af57806323b872dd146101cb575b600080fd5b61014b60048036038101906101469190611df9565b61041d565b6040516101589190611e41565b60405180910390f35b6101696104ff565b6040516101769190611ef5565b60405180910390f35b61019960048036038101906101949190611f4d565b610591565b6040516101a69190611fbb565b60405180910390f35b6101c960048036038101906101c49190612002565b610616565b005b6101e560048036038101906101e09190612042565b61072d565b005b61020160048036038101906101fc9190612042565b61078d565b005b61021d60048036038101906102189190611f4d565b6107ad565b60405161022a9190611ef5565b60405180910390f35b61024d60048036038101906102489190611f4d565b610825565b60405161025a91906120a4565b60405180910390f35b61027d60048036038101906102789190611f4d565b61083d565b60405161028a9190611fbb565b60405180910390f35b6102ad60048036038101906102a891906120bf565b6108ee565b6040516102ba91906120a4565b60405180910390f35b6102cb6109a5565b005b6102e760048036038101906102e29190611f4d565b610a2d565b6040516102f49190611fbb565b60405180910390f35b610305610a60565b6040516103129190611fbb565b60405180910390f35b610323610a8a565b6040516103309190611ef5565b60405180910390f35b610353600480360381019061034e9190612118565b610b1c565b005b61036f600480360381019061036a919061228d565b610b32565b60405161037c91906120a4565b60405180910390f35b61039f600480360381019061039a919061238a565b610c00565b005b6103bb60048036038101906103b69190611f4d565b610c62565b6040516103c89190611ef5565b60405180910390f35b6103eb60048036038101906103e6919061240d565b610db3565b6040516103f89190611e41565b60405180910390f35b61041b600480360381019061041691906120bf565b610e47565b005b60007f80ac58cd000000000000000000000000000000000000000000000000000000007bffffffffffffffffffffffffffffffffffffffffffffffffffffffff1916827bffffffffffffffffffffffffffffffffffffffffffffffffffffffff191614806104e857507f5b5e139f000000000000000000000000000000000000000000000000000000007bffffffffffffffffffffffffffffffffffffffffffffffffffffffff1916827bffffffffffffffffffffffffffffffffffffffffffffffffffffffff1916145b806104f857506104f782610f54565b5b9050919050565b60606000805461050e9061247c565b80601f016020809104026020016040519081016040528092919081815260200182805461053a9061247c565b80156105875780601f1061055c57610100808354040283529160200191610587565b820191906000526020600020905b81548152906001019060200180831161056a57829003601f168201915b5050505050905090565b600061059c82610fbe565b6105db576040517f08c379a00000000000000000000000000000000000000000000000000000000081526004016105d29061251f565b60405180910390fd5b6004600083815260200190815260200160002060009054906101000a900473ffffffffffffffffffffffffffffffffffffffff169050919050565b60006106218261083d565b90508073ffffffffffffffffffffffffffffffffffffffff168373ffffffffffffffffffffffffffffffffffffffff1603610691576040517f08c379a0000000000000000000000000000000000000000000000000000000008152600401610688906125b1565b60405180910390fd5b8073ffffffffffffffffffffffffffffffffffffffff166106b061102a565b73ffffffffffffffffffffffffffffffffffffffff1614806106df57506106de816106d961102a565b610db3565b5b61071e576040517f08c379a000000000000000000000000000000000000000000000000000000000815260040161071590612643565b60405180910390fd5b6107288383611032565b505050565b61073e61073861102a565b826110eb565b61077d576040517f08c379a0000000000000000000000000000000000000000000000000000000008152600401610774906126d5565b60405180910390fd5b6107888383836111c9565b505050565b6107a883838360405180602001604052806000815250610c00565b505050565b606060006009600084815260200190815260200160002054036107fc576040517f1aea071c00000000000000000000000000000000000000000000000000000000815260040160405180910390fd5b60006009600084815260200190815260200160002054905061081d81610c62565b915050919050565b60096020528060005260406000206000915090505481565b6000806002600084815260200190815260200160002060009054906101000a900473ffffffffffffffffffffffffffffffffffffffff169050600073ffffffffffffffffffffffffffffffffffffffff168173ffffffffffffffffffffffffffffffffffffffff16036108e5576040517f08c379a00000000000000000000000000000000000000000000000000000000081526004016108dc90612767565b60405180910390fd5b80915050919050565b60008073ffffffffffffffffffffffffffffffffffffffff168273ffffffffffffffffffffffffffffffffffffffff160361095e576040517f08c379a0000000000000000000000000000000000000000000000000000000008152600401610955906127f9565b60405180910390fd5b600360008373ffffffffffffffffffffffffffffffffffffffff1673ffffffffffffffffffffffffffffffffffffffff168152602001908152602001600020549050919050565b6109ad61102a565b73ffffffffffffffffffffffffffffffffffffffff166109cb610a60565b73ffffffffffffffffffffffffffffffffffffffff1614610a21576040517f08c379a0000000000000000000000000000000000000000000000000000000008152600401610a1890612865565b60405180910390fd5b610a2b600061142f565b565b600a6020528060005260406000206000915054906101000a900473ffffffffffffffffffffffffffffffffffffffff1681565b6000600760009054906101000a900473ffffffffffffffffffffffffffffffffffffffff16905090565b606060018054610a999061247c565b80601f0160208091040260200160405190810160405280929190818152602001828054610ac59061247c565b8015610b125780601f10610ae757610100808354040283529160200191610b12565b820191906000526020600020905b815481529060010190602001808311610af557829003601f168201915b5050505050905090565b610b2e610b2761102a565b83836114f5565b5050565b600080610b3f6008611661565b9050610b4b338261166f565b80600960008681526020019081526020016000208190555033600a600086815260200190815260200160002060006101000a81548173ffffffffffffffffffffffffffffffffffffffff021916908373ffffffffffffffffffffffffffffffffffffffff160217905550610bbf8184611848565b610bc96008610f3e565b837fb5b59f8848e8855d7d2b80d385277355e22148fe9923b858b22076f29174c0ce60405160405180910390a28091505092915050565b610c11610c0b61102a565b836110eb565b610c50576040517f08c379a0000000000000000000000000000000000000000000000000000000008152600401610c47906126d5565b60405180910390fd5b610c5c848484846118bc565b50505050565b6060610c6d82610fbe565b610cac576040517f08c379a0000000000000000000000000000000000000000000000000000000008152600401610ca3906128f7565b60405180910390fd5b6000600660008481526020019081526020016000208054610ccc9061247c565b80601f0160208091040260200160405190810160405280929190818152602001828054610cf89061247c565b8015610d455780601f10610d1a57610100808354040283529160200191610d45565b820191906000526020600020905b815481529060010190602001808311610d2857829003601f168201915b505050505090506000610d56611918565b90506000815103610d6b578192505050610dae565b600082511115610da0578082604051602001610d88929190612953565b60405160208183030381529060405292505050610dae565b610da98461192f565b925050505b919050565b6000600560008473ffffffffffffffffffffffffffffffffffffffff1673ffffffffffffffffffffffffffffffffffffffff16815260200190815260200160002060008373ffffffffffffffffffffffffffffffffffffffff1673ffffffffffffffffffffffffffffffffffffffff16815260200190815260200160002060009054906101000a900460ff16905092915050565b610e4f61102a565b73ffffffffffffffffffffffffffffffffffffffff16610e6d610a60565b73ffffffffffffffffffffffffffffffffffffffff1614610ec3576040517f08c379a0000000000000000000000000000000000000000000000000000000008152600401610eba90612865565b60405180910390fd5b600073ffffffffffffffffffffffffffffffffffffffff168173ffffffffffffffffffffffffffffffffffffffff1603610f32576040517f08c379a0000000000000000000000000000000000000000000000000000000008152600401610f29906129e9565b60405180910390fd5b610f3b8161142f565b50565b6001816000016000828254019250508190555050565b60007f01ffc9a7000000000000000000000000000000000000000000000000000000007bffffffffffffffffffffffffffffffffffffffffffffffffffffffff1916827bffffffffffffffffffffffffffffffffffffffffffffffffffffffff1916149050919050565b60008073ffffffffffffffffffffffffffffffffffffffff166002600084815260200190815260200160002060009054906101000a900473ffffffffffffffffffffffffffffffffffffffff1673ffffffffffffffffffffffffffffffffffffffff1614159050919050565b600033905090565b816004600083815260200190815260200160002060006101000a81548173ffffffffffffffffffffffffffffffffffffffff021916908373ffffffffffffffffffffffffffffffffffffffff160217905550808273ffffffffffffffffffffffffffffffffffffffff166110a58361083d565b73ffffffffffffffffffffffffffffffffffffffff167f8c5be1e5ebec7d5bd14f71427d1e84f3dd0314c0f7b2291e5b200ac8c7c3b92560405160405180910390a45050565b60006110f682610fbe565b611135576040517f08c379a000000000000000000000000000000000000000000000000000000000815260040161112c90612a7b565b60405180910390fd5b60006111408361083d565b90508073ffffffffffffffffffffffffffffffffffffffff168473ffffffffffffffffffffffffffffffffffffffff16148061118257506111818185610db3565b5b806111c057508373ffffffffffffffffffffffffffffffffffffffff166111a884610591565b73ffffffffffffffffffffffffffffffffffffffff16145b91505092915050565b8273ffffffffffffffffffffffffffffffffffffffff166111e98261083d565b73ffffffffffffffffffffffffffffffffffffffff161461123f576040517f08c379a000000000000000000000000000000000000000000000000000000000815260040161123690612b0d565b60405180910390fd5b600073ffffffffffffffffffffffffffffffffffffffff168273ffffffffffffffffffffffffffffffffffffffff16036112ae576040517f08c379a00000000000000000000000000000000000000000000000000000000081526004016112a590612b9f565b60405180910390fd5b6112b98383836119d6565b6112c4600082611032565b6001600360008573ffffffffffffffffffffffffffffffffffffffff1673ffffffffffffffffffffffffffffffffffffffff16815260200190815260200160002060008282546113149190612bee565b925050819055506001600360008473ffffffffffffffffffffffffffffffffffffffff1673ffffffffffffffffffffffffffffffffffffffff168152602001908152602001600020600082825461136b9190612c22565b92505081905550816002600083815260200190815260200160002060006101000a81548173ffffffffffffffffffffffffffffffffffffffff021916908373ffffffffffffffffffffffffffffffffffffffff160217905550808273ffffffffffffffffffffffffffffffffffffffff168473ffffffffffffffffffffffffffffffffffffffff167fddf252ad1be2c89b69c2b068fc378daa952ba7f163c4a11628f55a4df523b3ef60405160405180910390a461142a8383836119db565b505050565b6000600760009054906101000a900473ffffffffffffffffffffffffffffffffffffffff16905081600760006101000a81548173ffffffffffffffffffffffffffffffffffffffff021916908373ffffffffffffffffffffffffffffffffffffffff1602179055508173ffffffffffffffffffffffffffffffffffffffff168173ffffffffffffffffffffffffffffffffffffffff167f8be0079c531659141344cd1fd0a4f28419497f9722a3daafe3b4186f6b6457e060405160405180910390a35050565b8173ffffffffffffffffffffffffffffffffffffffff168373ffffffffffffffffffffffffffffffffffffffff1603611563576040517f08c379a000000000000000000000000000000000000000000000000000000000815260040161155a90612cc4565b60405180910390fd5b80600560008573ffffffffffffffffffffffffffffffffffffffff1673ffffffffffffffffffffffffffffffffffffffff16815260200190815260200160002060008473ffffffffffffffffffffffffffffffffffffffff1673ffffffffffffffffffffffffffffffffffffffff16815260200190815260200160002060006101000a81548160ff0219169083151502179055508173ffffffffffffffffffffffffffffffffffffffff168373ffffffffffffffffffffffffffffffffffffffff167f17307eab39ab6107e8899845ad3d59bd9653f200f220920489ca2b5937696c31836040516116549190611e41565b60405180910390a3505050565b600081600001549050919050565b600073ffffffffffffffffffffffffffffffffffffffff168273ffffffffffffffffffffffffffffffffffffffff16036116de576040517f08c379a00000000000000000000000000000000000000000000000000000000081526004016116d590612d30565b60405180910390fd5b6116e781610fbe565b15611727576040517f08c379a000000000000000000000000000000000000000000000000000000000815260040161171e90612d9c565b60405180910390fd5b611733600083836119d6565b6001600360008473ffffffffffffffffffffffffffffffffffffffff1673ffffffffffffffffffffffffffffffffffffffff16815260200190815260200160002060008282546117839190612c22565b92505081905550816002600083815260200190815260200160002060006101000a81548173ffffffffffffffffffffffffffffffffffffffff021916908373ffffffffffffffffffffffffffffffffffffffff160217905550808273ffffffffffffffffffffffffffffffffffffffff16600073ffffffffffffffffffffffffffffffffffffffff167fddf252ad1be2c89b69c2b068fc378daa952ba7f163c4a11628f55a4df523b3ef60405160405180910390a4611844600083836119db565b5050565b61185182610fbe565b611890576040517f08c379a000000000000000000000000000000000000000000000000000000000815260040161188790612e2e565b60405180910390fd5b806006600084815260200190815260200160002090805190602001906118b7929190611cea565b505050565b6118c78484846111c9565b6118d3848484846119e0565b611912576040517f08c379a000000000000000000000000000000000000000000000000000000000815260040161190990612ec0565b60405180910390fd5b50505050565b606060405180602001604052806000815250905090565b606061193a82610fbe565b611979576040517f08c379a000000000000000000000000000000000000000000000000000000000815260040161197090612f52565b60405180910390fd5b6000611983611918565b905060008151116119a357604051806020016040528060008152506119ce565b806119ad84611b67565b6040516020016119be929190612953565b6040516020818303038152906040525b915050919050565b505050565b505050565b6000611a018473ffffffffffffffffffffffffffffffffffffffff16611cc7565b15611b5a578373ffffffffffffffffffffffffffffffffffffffff1663150b7a02611a2a61102a565b8786866040518563ffffffff1660e01b8152600401611a4c9493929190612fc7565b6020604051808303816000875af1925050508015611a8857506040513d601f19601f82011682018060405250810190611a859190613028565b60015b611b0a573d8060008114611ab8576040519150601f19603f3d011682016040523d82523d6000602084013e611abd565b606091505b506000815103611b02576040517f08c379a0000000000000000000000000000000000000000000000000000000008152600401611af990612ec0565b60405180910390fd5b805181602001fd5b63150b7a0260e01b7bffffffffffffffffffffffffffffffffffffffffffffffffffffffff1916817bffffffffffffffffffffffffffffffffffffffffffffffffffffffff191614915050611b5f565b600190505b949350505050565b606060008203611bae576040518060400160405280600181526020017f30000000000000000000000000000000000000000000000000000000000000008152509050611cc2565b600082905060005b60008214611be0578080611bc990613055565b915050600a82611bd991906130cc565b9150611bb6565b60008167ffffffffffffffff811115611bfc57611bfb612162565b5b6040519080825280601f01601f191660200182016040528015611c2e5781602001600182028036833780820191505090505b5090505b60008514611cbb57600182611c479190612bee565b9150600a85611c5691906130fd565b6030611c629190612c22565b60f81b818381518110611c7857611c7761312e565b5b60200101907effffffffffffffffffffffffffffffffffffffffffffffffffffffffffffff1916908160001a905350600a85611cb491906130cc565b9450611c32565b8093505050505b919050565b6000808273ffffffffffffffffffffffffffffffffffffffff163b119050919050565b828054611cf69061247c565b90600052602060002090601f016020900481019282611d185760008555611d5f565b82601f10611d3157805160ff1916838001178555611d5f565b82800160010185558215611d5f579182015b82811115611d5e578251825591602001919060010190611d43565b5b509050611d6c9190611d70565b5090565b5b80821115611d89576000816000905550600101611d71565b5090565b6000604051905090565b600080fd5b600080fd5b60007fffffffff0000000000000000000000000000000000000000000000000000000082169050919050565b611dd681611da1565b8114611de157600080fd5b50565b600081359050611df381611dcd565b92915050565b600060208284031215611e0f57611e0e611d97565b5b6000611e1d84828501611de4565b91505092915050565b60008115159050919050565b611e3b81611e26565b82525050565b6000602082019050611e566000830184611e32565b92915050565b600081519050919050565b600082825260208201905092915050565b60005b83811015611e96578082015181840152602081019050611e7b565b83811115611ea5576000848401525b50505050565b6000601f19601f8301169050919050565b6000611ec782611e5c565b611ed18185611e67565b9350611ee1818560208601611e78565b611eea81611eab565b840191505092915050565b60006020820190508181036000830152611f0f8184611ebc565b905092915050565b6000819050919050565b611f2a81611f17565b8114611f3557600080fd5b50565b600081359050611f4781611f21565b92915050565b600060208284031215611f6357611f62611d97565b5b6000611f7184828501611f38565b91505092915050565b600073ffffffffffffffffffffffffffffffffffffffff82169050919050565b6000611fa582611f7a565b9050919050565b611fb581611f9a565b82525050565b6000602082019050611fd06000830184611fac565b92915050565b611fdf81611f9a565b8114611fea57600080fd5b50565b600081359050611ffc81611fd6565b92915050565b6000806040838503121561201957612018611d97565b5b600061202785828601611fed565b925050602061203885828601611f38565b9150509250929050565b60008060006060848603121561205b5761205a611d97565b5b600061206986828701611fed565b935050602061207a86828701611fed565b925050604061208b86828701611f38565b9150509250925092565b61209e81611f17565b82525050565b60006020820190506120b96000830184612095565b92915050565b6000602082840312156120d5576120d4611d97565b5b60006120e384828501611fed565b91505092915050565b6120f581611e26565b811461210057600080fd5b50565b600081359050612112816120ec565b92915050565b6000806040838503121561212f5761212e611d97565b5b600061213d85828601611fed565b925050602061214e85828601612103565b9150509250929050565b600080fd5b600080fd5b7f4e487b7100000000000000000000000000000000000000000000000000000000600052604160045260246000fd5b61219a82611eab565b810181811067ffffffffffffffff821117156121b9576121b8612162565b5b80604052505050565b60006121cc611d8d565b90506121d88282612191565b919050565b600067ffffffffffffffff8211156121f8576121f7612162565b5b61220182611eab565b9050602081019050919050565b82818337600083830152505050565b600061223061222b846121dd565b6121c2565b90508281526020810184848401111561224c5761224b61215d565b5b61225784828561220e565b509392505050565b600082601f83011261227457612273612158565b5b813561228484826020860161221d565b91505092915050565b600080604083850312156122a4576122a3611d97565b5b60006122b285828601611f38565b925050602083013567ffffffffffffffff8111156122d3576122d2611d9c565b5b6122df8582860161225f565b9150509250929050565b600067ffffffffffffffff82111561230457612303612162565b5b61230d82611eab565b9050602081019050919050565b600061232d612328846122e9565b6121c2565b9050828152602081018484840111156123495761234861215d565b5b61235484828561220e565b509392505050565b600082601f83011261237157612370612158565b5b813561238184826020860161231a565b91505092915050565b600080600080608085870312156123a4576123a3611d97565b5b60006123b287828801611fed565b94505060206123c387828801611fed565b93505060406123d487828801611f38565b925050606085013567ffffffffffffffff8111156123f5576123f4611d9c565b5b6124018782880161235c565b91505092959194509250565b6000806040838503121561242457612423611d97565b5b600061243285828601611fed565b925050602061244385828601611fed565b9150509250929050565b7f4e487b7100000000000000000000000000000000000000000000000000000000600052602260045260246000fd5b6000600282049050600182168061249457607f821691505b6020821081036124a7576124a661244d565b5b50919050565b7f4552433732313a20617070726f76656420717565727920666f72206e6f6e657860008201527f697374656e7420746f6b656e0000000000000000000000000000000000000000602082015250565b6000612509602c83611e67565b9150612514826124ad565b604082019050919050565b60006020820190508181036000830152612538816124fc565b9050919050565b7f4552433732313a20617070726f76616c20746f2063757272656e74206f776e6560008201527f7200000000000000000000000000000000000000000000000000000000000000602082015250565b600061259b602183611e67565b91506125a68261253f565b604082019050919050565b600060208201905081810360008301526125ca8161258e565b9050919050565b7f4552433732313a20617070726f76652063616c6c6572206973206e6f74206f7760008201527f6e6572206e6f7220617070726f76656420666f7220616c6c0000000000000000602082015250565b600061262d603883611e67565b9150612638826125d1565b604082019050919050565b6000602082019050818103600083015261265c81612620565b9050919050565b7f4552433732313a207472616e736665722063616c6c6572206973206e6f74206f60008201527f776e6572206e6f7220617070726f766564000000000000000000000000000000602082015250565b60006126bf603183611e67565b91506126ca82612663565b604082019050919050565b600060208201905081810360008301526126ee816126b2565b9050919050565b7f4552433732313a206f776e657220717565727920666f72206e6f6e657869737460008201527f656e7420746f6b656e0000000000000000000000000000000000000000000000602082015250565b6000612751602983611e67565b915061275c826126f5565b604082019050919050565b6000602082019050818103600083015261278081612744565b9050919050565b7f4552433732313a2062616c616e636520717565727920666f7220746865207a6560008201527f726f206164647265737300000000000000000000000000000000000000000000602082015250565b60006127e3602a83611e67565b91506127ee82612787565b604082019050919050565b60006020820190508181036000830152612812816127d6565b9050919050565b7f4f776e61626c653a2063616c6c6572206973206e6f7420746865206f776e6572600082015250565b600061284f602083611e67565b915061285a82612819565b602082019050919050565b6000602082019050818103600083015261287e81612842565b9050919050565b7f45524337323155524953746f726167653a2055524920717565727920666f722060008201527f6e6f6e6578697374656e7420746f6b656e000000000000000000000000000000602082015250565b60006128e1603183611e67565b91506128ec82612885565b604082019050919050565b60006020820190508181036000830152612910816128d4565b9050919050565b600081905092915050565b600061292d82611e5c565b6129378185612917565b9350612947818560208601611e78565b80840191505092915050565b600061295f8285612922565b915061296b8284612922565b91508190509392505050565b7f4f776e61626c653a206e6577206f776e657220697320746865207a65726f206160008201527f6464726573730000000000000000000000000000000000000000000000000000602082015250565b60006129d3602683611e67565b91506129de82612977565b604082019050919050565b60006020820190508181036000830152612a02816129c6565b9050919050565b7f4552433732313a206f70657261746f7220717565727920666f72206e6f6e657860008201527f697374656e7420746f6b656e0000000000000000000000000000000000000000602082015250565b6000612a65602c83611e67565b9150612a7082612a09565b604082019050919050565b60006020820190508181036000830152612a9481612a58565b9050919050565b7f4552433732313a207472616e736665722066726f6d20696e636f72726563742060008201527f6f776e6572000000000000000000000000000000000000000000000000000000602082015250565b6000612af7602583611e67565b9150612b0282612a9b565b604082019050919050565b60006020820190508181036000830152612b2681612aea565b9050919050565b7f4552433732313a207472616e7366657220746f20746865207a65726f2061646460008201527f7265737300000000000000000000000000000000000000000000000000000000602082015250565b6000612b89602483611e67565b9150612b9482612b2d565b604082019050919050565b60006020820190508181036000830152612bb881612b7c565b9050919050565b7f4e487b7100000000000000000000000000000000000000000000000000000000600052601160045260246000fd5b6000612bf982611f17565b9150612c0483611f17565b925082821015612c1757612c16612bbf565b5b828203905092915050565b6000612c2d82611f17565b9150612c3883611f17565b9250827fffffffffffffffffffffffffffffffffffffffffffffffffffffffffffffffff03821115612c6d57612c6c612bbf565b5b828201905092915050565b7f4552433732313a20617070726f766520746f2063616c6c657200000000000000600082015250565b6000612cae601983611e67565b9150612cb982612c78565b602082019050919050565b60006020820190508181036000830152612cdd81612ca1565b9050919050565b7f4552433732313a206d696e7420746f20746865207a65726f2061646472657373600082015250565b6000612d1a602083611e67565b9150612d2582612ce4565b602082019050919050565b60006020820190508181036000830152612d4981612d0d565b9050919050565b7f4552433732313a20746f6b656e20616c7265616479206d696e74656400000000600082015250565b6000612d86601c83611e67565b9150612d9182612d50565b602082019050919050565b60006020820190508181036000830152612db581612d79565b9050919050565b7f45524337323155524953746f726167653a2055524920736574206f66206e6f6e60008201527f6578697374656e7420746f6b656e000000000000000000000000000000000000602082015250565b6000612e18602e83611e67565b9150612e2382612dbc565b604082019050919050565b60006020820190508181036000830152612e4781612e0b565b9050919050565b7f4552433732313a207472616e7366657220746f206e6f6e20455243373231526560008201527f63656976657220696d706c656d656e7465720000000000000000000000000000602082015250565b6000612eaa603283611e67565b9150612eb582612e4e565b604082019050919050565b60006020820190508181036000830152612ed981612e9d565b9050919050565b7f4552433732314d657461646174613a2055524920717565727920666f72206e6f60008201527f6e6578697374656e7420746f6b656e0000000000000000000000000000000000602082015250565b6000612f3c602f83611e67565b9150612f4782612ee0565b604082019050919050565b60006020820190508181036000830152612f6b81612f2f565b9050919050565b600081519050919050565b600082825260208201905092915050565b6000612f9982612f72565b612fa38185612f7d565b9350612fb3818560208601611e78565b612fbc81611eab565b840191505092915050565b6000608082019050612fdc6000830187611fac565b612fe96020830186611fac565b612ff66040830185612095565b81810360608301526130088184612f8e565b905095945050505050565b60008151905061302281611dcd565b92915050565b60006020828403121561303e5761303d611d97565b5b600061304c84828501613013565b91505092915050565b600061306082611f17565b91507fffffffffffffffffffffffffffffffffffffffffffffffffffffffffffffffff820361309257613091612bbf565b5b600182019050919050565b7f4e487b7100000000000000000000000000000000000000000000000000000000600052601260045260246000fd5b60006130d782611f17565b91506130e283611f17565b9250826130f2576130f161309d565b5b828204905092915050565b600061310882611f17565b915061311383611f17565b9250826131235761312261309d565b5b828206905092915050565b7f4e487b7100000000000000000000000000000000000000000000000000000000600052603260045260246000fdfea2646970667358221220400da25d72ff39660cf108d293073a7095fe75228863c34f48b97a943722823864736f6c634300080d0033",
  "linkReferences": {},
  "deployedLinkReferences": {}
}